:020000040001F9
:1080000090310020158101002F8101003181010094
:108010000000000000000000000000000000000060
:10802000000000000000000000000000338101009B
:1080300000000000000000003581010037810100D0
:108040003981010039810100398101003981010044
:1080500039810100000000008D8B01003981010091
:10806000C5920100D59201003981010039810100DA
:108070003981010039810100398101003981010014
:1080800039810100A9900100398101003981010085
:1080900041910100398101004991010039810100BC
:1080A000398101003981010000000000000000005A
:1080B00000000000000000000000000000000000C0
:1080C0000348854600F0AAF80048004745B501007E
:1080D00090310020401E00BF00BF00BF00BF00BFA6
:1080E00000BF00BF00BF00BF00BF00BF00BFF1D195
:1080F00070470000401E00BF00BF00BF00BF00BFB0
:1081000000BF00BF00BF00BF00BF00BF00BFF1D174
:10811000704700000321094802680A4302600848CA
:1081200002680A4302600748804707480047FEE7A5
:10813000FEE7FEE7FEE7FEE7FEE70000240500405D
:10814000540500407D910100C180010030B50B460F
:10815000014600202022012409E00D46D5409D4221
:1081600005D31D469540491B2546954040191546A7
:10817000521E002DF1DC30BD70B5002425460028CC
:1081800001DA01244042002901DA01254942FFF7C2
:10819000DDFFAC4200D04042002C00D0494270BD0F
:1081A00003460B439B0703D009E008C9121F08C010
:1081B000042AFAD203E00B780370401C491C521EBB
:1081C000F9D27047D2B201E00270401C491EFBD2C6
:1081D00070470022F6E710B513460A4604461946D2
:1081E000FFF7F0FF204610BD421C0178401C00291B
:1081F000FBD1801A70470321001D401E0378120234
:108200001A43491EF9D510467047034603220870E9
:10821000000A491C521EFAD518467047064C012523
:10822000064E05E0E36807CC2B430C3C984710341E
:10823000B442F7D3FFF748FF78E9010098E901005D
:1082400070B58C180578401C6B075B0F01D1037863
:10825000401C2A1106D10278401C03E006780E70FB
:10826000401C491C5B1EF9D12B0705D40023521E6C
:108270000DD40B70491CFAE70378401CCB1A921CF2
:1082800003E01D780D70491C5B1C521EF9D5A142FC
:10829000D8D3002070BD034610B50020024603E08D
:1082A0009C5C2018C0B2521C8A42F9D310BD30B574
:1082B000044687B000200D460090142101A8FFF766
:1082C00088FF2A46214601A800F0E4FC68460179AF
:1082D0004079414068468279C079424051406846C1
:1082E0000170017A407A41406846827AC07A424001
:1082F000514068464170017B407B41406846827B2B
:10830000C07B4240514068468170017C407C4140C6
:108310006846827CC07C424051406846C1700098EB
:1083200007B030BD70B588B00D46044616461C2116
:108330006846FFF74EFF1C216846FFF74AFF0422FC
:1083400029466846FFF72CFF0422294601A8FFF7BB
:1083500027FF0422294602A8FFF722FF042229460C
:1083600003A8FFF71DFF0422294604A8FFF718FF02
:108370000422294605A8FFF713FF684600F08AFF8C
:108380002146304600F04AFF08B070BD70B5154672
:10839000027804460520130000F0B8FF061A100DFD
:1083A000132C041ACA2D2FD10220207000206070D7
:1083B0006071E07028E02571012009E065700320FC
:1083C00006E0E6786278964202D2A3789A4201D912
:1083D000207019E0607940196071C81CFFF70BFF2D
:1083E0008555E078401CC0B2E070617888420BD1BE
:1083F0000420EDE720706079A84205D1607888708C
:1084000020794870002070BDFF2070BDF0B5044693
:108410000026807889B00D4637460090042833D373
:108420000422884901A8FFF7BBFEE01CFFF7E3FE2A
:10843000009A011D02A8121FFFF7B2FEA17801A841
:10844000FFF735FF0090E01CFFF7D5FE01780A0624
:108450004178090411438278C07812020A430099D6
:108460001043814205D101270422764905A8FFF770
:1084700097FE617874480B0000F048FF0ADB097B27
:1084800093A6B9CD3A140DDB002009B0F0BD002F42
:108490005BD1552659E0002FFBD06C480122416882
:1084A00011437CE0002FF4D0A178142925D2407B21
:1084B000012807D00120034664220090114662483B
:1084C00000F074FD5F481421001D0746FFF781FE90
:1084D000E01CFFF790FEA278011D3846121FFFF73F
:1084E0005FFE5B4901200870072000F0EDFD2CE0E5
:1084F000002FCED0A1780C2901D0962625E0407B14
:10850000012807D0012003466422009011464E48FE
:1085100000F04CFD00200190029003900490E01CBC
:10852000FFF769FE021D05A901A8FFF7FBFE454FF5
:1085300004213F1F381DFFF74CFE042201A9381DFE
:10854000FFF72EFE424901200870CA20287060788B
:1085500068700120A870E81CFFF74DFE0670E81C4B
:10856000FFF749FEA978FFF796FEE87100206070DA
:108570008AE7002F8DD001252B4664223221324814
:10858000009500F013FDE01CFFF735FE0079002890
:1085900000D001202F4908702C48416829434160D0
:1085A000E4E7002FA5D002200090012364223221AD
:1085B000254800F0FBFCE01CFFF71DFE00790028B9
:1085C00000D00120244924E0002F92D00320009005
:1085D0000123642232211C4800F0E8FCE01CFFF774
:1085E0000AFE0079002800D001201C4911E0002F6C
:1085F000C0D004200090012364223221124800F0F0
:10860000D5FCE01CFFF7F7FD0079002800D0012021
:108610001349087041E7CA202870062068700726B1
:10862000AE70E81CFFF7E7FD32460EA1FFF7B8FD7C
:1086300095E701200346009064223221024800F0B1
:10864000B5FC93E7B824002060240020F820002027
:1086500019200020002000200120002002200020FE
:1086600003200020312E302E302E3700F8B507467B
:10867000002588780C462E4600281FD021783846E1
:1086800000F0FEFC6178384600F0FAFCA17838462C
:1086900000F0F6FC08E0E01CFFF7ADFD415D384658
:1086A00000F0EEFC6D1CEDB2A078A842F3D8E179A1
:1086B000384600F0E5FC0020A0703046F8BD000010
:1086C000FFB5044681B01E460F46C01CFFF793FD60
:1086D000054604221449FFF763FD3246281D03991D
:1086E000FFF75EFD311D2846FFF7E1FD009068466B
:1086F0000078287068464078687068468078A8706E
:108700006846C078E870CA202070361D6770F5B2E0
:10871000A570E01CFFF76FFD2946FFF7BCFDE07177
:10872000002005B0F0BD0000B82400200849024632
:1087300010B508460E38FFF729FE002806D1044878
:108740000E388278811D0E30FFF760FE10BD0000EC
:108750000E2100207FB51D491D48FFF787FF1B49EB
:108760001B481031FFF782FF184C01260E3C606851
:10877000C107002918D0B04360601648042301786F
:108780006846017014486A4601786846417013488B
:10879000017868468170124801786846C1702046A9
:1087A00009211E30FFF78CFF207802280DD10D4DD6
:1087B0000421281DFFF70DFD04220BA1281DFFF742
:1087C000EFFC0B480670002020707FBD06210020C2
:1087D000A0270020002000200120002002200020EF
:1087E00003200020B4240020313233340000000084
:1087F0001920002010B508211548FFF7EAFC14489D
:1088000008210830FFF7E5FC114808211030FFF778
:10881000E0FC104940220846103800F021FC0C48CA
:108820000521801F0170202181700146094809310E
:108830007038FFF7EAFC064906480B315038FFF75D
:10884000E4FC0349034813313038FFF7DEFC10BD68
:1088500006210020B02700207CB52148009020216F
:10886000684681800121C18004F0B2FA002803D05B
:108870000022114600F092FF1A49684604F026FBD8
:10888000002803D00022114600F088FF164805F0AA
:1088900027F8154C207AFF280DD02079FF2809D120
:1088A00011480C380021016110A1096801610E48CE
:1088B00005F026F87CBD0C48142108300546FFF76A
:1088C00088FC0C48817942790802104343BA0AA215
:1088D0000BA1284600F006FD2079FF28E0D0E6E74E
:1088E000F9CC01001C200020B424002031323334A4
:1088F000000000000E20002069746F74000000006A
:10890000257320232564000038B50E4C60780028BC
:1089100015D0684604F0B2F90021082810D00028CC
:108920000DD1009800280AD16170074804F0D6FFE5
:1089300005491C31FFF769FC034804F0E1FF38BD2D
:108940000091F1E718200020B4240020F3B5A3B073
:108950000F460026842102A8FFF73BFC002568464D
:10896000019505702C46239800F096F8002844D015
:10897000862069460872012202A9239800F0AAF90C
:1089800000283AD0012201A9239800F09AF9002882
:1089900033D06846007900282FD16846057202A8B6
:1089A000395D0219641CE4B25170802CF8D3014681
:1089B0008122239800F08EF900281ED002212398EE
:1089C00000F058F8002818D0FA2000F076F969462F
:1089D000239800F095F801280FD1FF21239800F08B
:1089E00049F8002809D0322000F067F96946239839
:1089F00000F086F8012800D10126304625B0F0BDF0
:108A00007FB506461AA00068002503903046083856
:108A10000C460095019502956F2826D8012203A9DE
:108A2000304600F057F900281FD00A226946304628
:108A300000F047F9002818D0684600882080684672
:108A4000408860806846007920716846407960718E
:108A500068468079A0716846C079E0716846007AFE
:108A600020726846407A60720125284604B070BDC5
:108A7000AA00000008B5034600201A46083A0090F4
:108A80006F2A08D886226846027041700222694621
:108A9000184600F01FF908BDFEB5054616A000688F
:108AA000002402902846154E0838009401946F283F
:108AB0001FD8012202A9284600F00CF9002818D07E
:108AC00005226946284600F0FCF8002811D06946C6
:108AD0000A78887849780002084369460B79CD788E
:108AE000190229439A2A04D1B04202D1012900D1A6
:108AF00001242046FEBD00008F000000030A000094
:108B00007CB50546002001900090284602240838D4
:108B10000E466F2815D8862069460871012201A9E2
:108B2000284600F0D7F800280BD0042269462846D2
:108B300000F0C7F8002804D068460078002802D06A
:108B4000002420467CBD68468078002803D0684613
:108B5000C0783070F5E70124F3E7000010B512C8C3
:108B600002680B1908389A420AD1074A5268836092
:108B7000914201D8501A01E0501A401E844201D897
:108B8000002010BD201A10BD20210020F8B50024BF
:108B9000FF250135012627460094284603F0B0FF43
:108BA000002808D034484068304204D033480021BF
:108BB0002818344301602D1D76007F1CADB2042FB0
:108BC000EBD3FF207D3003F09BFF002807D02C481B
:108BD00000210160400704432A48006900902A4FA1
:108BE000200712D00126002526420AD02748AA00D5
:108BF000111808690969C004C00E8903BA58890FA1
:108C0000904776006D1C042DEED3002C30DA002442
:108C10001D4E0021301940304156491C25D007789F
:108C2000BD06AD0E284601F0A7FD80003658002E87
:108C30001BD0BF090121A940154AA800801800686F
:108C4000009A8003800F114202D0022802D00CE06B
:108C500003280AD1032F05D102280AD00221284671
:108C600003F02EFF39462846B047641C042CCFD3AE
:108C7000F8BD0321F3E700000063004000600040FE
:108C80007C61004000050050142600200065004073
:108C90000007005070B596B0044615460E4668466B
:108CA00002F048FE2A463146684602F0D3FD2146CE
:108CB000684602F011FE16B070BD10B503F070FAF0
:108CC00010BD10B500F04EF8002801D0002010BDF6
:108CD000012010BD10B500F062F8002801D000207E
:108CE00010BD012010BD0000F1B50321062003F0E6
:108CF000CCFE00261A4F8025344638698009C0070B
:108D0000C00F00D02E436D08052003F0F1FE0020B7
:108D1000401EFDD2052003F0E3FE641CE4B2082CE3
:108D2000EBD3062003F0C2FE0098002803D00620F3
:108D300003F0DEFE02E0062003F0D2FE0120401E1A
:108D4000FDD2052003F0D4FE052003F0C9FE062065
:108D500003F0CEFE0420401EFDD2F0B2F8BD0000AC
:108D60000005005070B515460E460A2400F064F860
:108D700000F062F86F2000F087F8002805D0641E2C
:108D80002406240EF4D1012070BD2946304600F09F
:108D900041F800F028F800F066F8002070BDF8B542
:108DA00015460E460A24470000F046F8F8B200F0D7
:108DB0006BF8002805D0641E2406240EF4D101208F
:108DC000F8BD002404E0305D00F05EF8641CE4B2FD
:108DD000AC42F8D300F047F80020F8BD10B50520EC
:108DE00003F064FE10BD10B5062003F05FFE062000
:108DF00003F076FE0220401EFDD2052003F078FE2F
:108E0000052003F06DFE062003F072FE0420401ED4
:108E1000FDD210BD70B5002406464D1EAC4201DAED
:108E2000002000E00120FFF75FFF3055641CE4B232
:108E3000AC42F3DD002070BD10B5062003F036FE15
:108E4000062003F055FE052003F052FE0420401ECC
:108E5000FDD2062003F044FE0820401EFDD205206E
:108E600003F03EFE10BD10B5062003F01FFE0620E5
:108E700003F036FE052003F03BFE0A20401EFDD223
:108E8000062003F035FE10BD70B50646062003F03F
:108E90000DFE80250024354203D0062003F028FE75
:108EA00002E0062003F01CFE6D08052003F020FE02
:108EB000052003F015FE641CE4B2082CEBD303215B
:108EC000062003F0E2FD094800694006C40F0121B5
:108ED000491EFDD2052003F00BFE052003F000FE25
:108EE0000421491EFDD2204670BD0000000500503F
:108EF00010B5002404604460017083604270827089
:108F00004471C471847110BD30B40022002904D0B2
:108F1000C178491CC170027103E0C2700179491C1B
:108F20000171C478017801238C4202D38370C2702E
:108F300004E004798C4201D3027182708178427816
:108F4000914210D04371002909D0C279521CC271DC
:108F500041708268002A06D030BC084610478279EA
:108F6000521C8271F4E730BC7047437B0022012B16
:108F700019D183688B4203D9591A816001D00EE060
:108F800082600169002908D0491E016103684168B7
:108F9000C91881600121017301E042730273836883
:108FA00041688B4200D80273007B704710B5029C69
:108FB00006C00021016043718460C46010BD0000E0
:108FC000034A526802604160511881607047000096
:108FD000202100208307FF22DB0E9A408907090E1B
:108FE000994000280BDA0007000F0838830808486A
:108FF0009B001818C36993430B43C36170478308F0
:1090000004489B001B181868904308431860704779
:1090100000ED00E000E400E0BFF34F8F0449034897
:10902000C860BFF34F8F00BFFDE700000400FA05E2
:1090300000ED00E0426803689A4202D10020C0437C
:1090400070474368C268D25C0A704168491C41603D
:1090500041688268914201D300214160002070473D
:10906000002803D0002901D0022A02D20020C043E8
:109070007047C1600021016041608260084670470E
:1090800010B502688368521C934200D800224368DE
:10909000934202D10020C04310BD0468C368195533
:1090A0000260002010BD000010B5064900200860D5
:1090B00048608860C860034940390860486004F02F
:1090C000F9FC10BD4011014010B5044908707D2124
:1090D000C9000348FFF774FF10BD000018200020EE
:1090E000A824002070B5114C04252078030000F05E
:1090F0000DF908141A0D0F150B08051A7D21C9006A
:1091000007E07D21090104E0094902E0094900E086
:1091100009490A48FFF754FF257070BD0748FFF75B
:109120001DFD0028F9D1FFF777FF0000182000206F
:10913000881300001027000030750000A8240020CC
:1091400010B504F049FC10BD10B507484068002870
:1091500007D08047002803D00022114600F01EFBF4
:1091600010BD01F0B5FF10BDE420002002484168A9
:109170000A314160704700002021002010B502F044
:1091800069F8002805D01F491D484860C8131E49CA
:1091900088611E48018CC9B201290BD1828C12074B
:1091A00008D1028D1206120F042A03D1828D1206F5
:1091B000120F0AD0012921D1818C09071ED1018DFE
:1091C0000906090F0A2904D007E0114A012191601C
:1091D000F5E7828D1206120F05D00D290ED1808D74
:1091E0000006000F0AD10B480168012904D00A4982
:1091F000016001680129FCD1C021416110BD00005E
:10920000DFFF07C000050040006C0040C00F00F009
:109210000006004000EC0640759300007CB50C464B
:109220000546FEF7E8FF00BA000AE97800020843A5
:109230000090281DFEF7DFFF00BA000AE97900025E
:10924000084301901149684601F0D4FC0F49684673
:10925000803101F0CFFC0E49684601F0CBFC00984C
:10926000E0700098000AA0700098000C60700098F0
:10927000000E20700198E0710198000AA071019819
:10928000000C60710198000E20717CBD0C2800203C
:109290000C29002010B50446084A012101F092FD76
:1092A000064A2046803A0021083001F08BFD204616
:1092B000034A0121103001F085FD10BD0C2900206A
:1092C0000C28002010B50021014803F04FFB10BD11
:1092D0000080004010B50121014803F047FB10BD9C
:1092E000009000400FB410B504A9074B02AA0398E0
:1092F00000F028F8044602A9002000F009F92046F1
:1093000010BC08BC04B018471195010030B4744675
:10931000641E2578641CAB4200D21D46635D5B0071
:10932000E31830BC184702E008C8121F08C1002A21
:10933000FAD170477047002001E001C1121F002AD6
:10934000FBD17047FFB58DB00F460546002606E0FD
:1093500025280AD0109A0F9990476D1C761C287802
:109360000028F5D1304611B0F0BD00240121674A34
:10937000009400E004436D1C2B780846203B984085
:109380001042F7D128782E2815D10420044368789C
:109390006D1C2A280AD101CF6D1C00900BE00099AA
:1093A0000A225143303940186D1C0090287801463C
:1093B00030390929F3D92878692843D006DC0028F8
:1093C000D0D063280BD0642804D13BE073280FD0A1
:1093D00075284CD0109A0F999047761C94E03878F5
:1093E000694608720020487202A80190012003E03B
:1093F000386801900020C0433F1D61070CD5002450
:1094000000E0641C00998C420FDA8442F9DB019978
:10941000095D0029F5D108E0002400E0641C8442C5
:10942000FCDB0199095D0029F8D1361907E00198A4
:1094300001990078491C0191109A0F999047641E78
:10944000F5D261E00A20019001CF002802DA404203
:109450002D2102E0210504D52B216A46117201213C
:1094600003E0E10701D02021F7E70C9104E00A2096
:10947000019001CF00210C910BA90B9108E00199FB
:10948000FEF764FE0A460B993032491E0B910A70B2
:109490000028F4D10B9803A9081A20300190600726
:1094A00001D5009801E0012000900199884203DD78
:1094B00001460198081A00E000200024009006E010
:1094C00002A8109A005D0F999047641C761C0C98B6
:1094D0008442F5DB04E0109A30200F999047761C07
:1094E0000099481E00900029F5DC08E00B980B99C4
:1094F0000078491C0B91109A0F999047761C01999E
:10950000481E01900029F1DC6D1C28E709280100A4
:109510000A68531C0B6010707047F7B584B00025C3
:10952000168807461580406B1446002813D0037830
:109530000598032E51D30221017021881122491C64
:1095400089B2218042542188491C89B22180435428
:109550002088401C2080386B00281DD005462088BC
:10956000059902461232B24237D811220A54208895
:109570001022401C80B220800A542088401C208089
:109580000F202A5C2388401ECA54228840B2521CF5
:1095900022800028F5DA0025384620300290807BB2
:1095A000002806D033462246059901F0A5FE0500A5
:1095B00014D10298407B002806D0324621460598F7
:1095C00000F0A6FE050009D1B878002823D0059840
:1095D00086462088001DB04202D90C2007B0F0BD9D
:1095E000684679DF0028F9D121880320724650545B
:1095F00020881921401C80B2208011542088714697
:10960000401C80B2208041186846008804F0ACFB02
:10961000218840182080F878002817D0218803235B
:109620000A46FB56C91C0598B142D6D8022181547E
:1096300021880122491C89B2218042542188491C79
:1096400089B2218043542088401C208078680028FB
:1096500017D021880023C3560A46C91C0598B14279
:10966000BBD80221815421880A22491C89B2218059
:1096700042542188491C89B2218043542088401CCF
:109680002080388900280AD00094384601960622A6
:1096900002210830059B04F0DCFB05009ED1388ACE
:1096A00000280AD000943846019607220321103082
:1096B000059B04F0CEFB050090D1388B00280AD022
:1096C000009438460196152214211830059B04F0A9
:1096D000C0FB050082D1386A002806D033462246F6
:1096E000059901F0A9F90500D8D1786A002806D0BB
:1096F00033462246059902F079F80500CED102984A
:10970000007B002807D0334622463846059903F0EF
:1097100052FF0500C2D13878002807D033462246D0
:109720003846059902F0ECFC0500B7D1284655E70C
:1097300030B5A7B0382101A8FEF74BFD02216846DD
:109740000171002484710521C17138210FA8FEF731
:1097500040FD012510A885810E48149024211DA8E4
:10976000FEF737FD18A8047520A805708020219009
:10977000B4202290084B1DAA0FA9009401A800F064
:1097800079FB002803D00022114600F007F827B02B
:1097900030BD00000A20002061CB0100BFF34F8FD5
:1097A00004490348C860BFF34F8F00BFFDE70000C6
:1097B0000400FA0500ED00E070B50024002903D094
:1097C0008A070025002A01D0072070BD094A0B46F0
:1097D0005160107018215570414318469560FEF78E
:1097E000F8FC02F045FD002802D102F017FD044606
:1097F000204670BD74200020F8B50C460E788968AC
:1098000002290DD00C225143074A555807490246F8
:10981000096A00912046314608302369A847F8BDFF
:10982000024924310D68F1E7282700209C20002000
:1098300010B5064914230A785A435118091DFFF739
:10984000DBFF042003F0FEFE10BD00005C260020BC
:1098500070B5054640680C4E4179715C0124FF29C2
:109860000ED0FE290DD002F0B9FF014668683346DC
:109870004079820008339A58914202D1FF21315435
:109880000024204670BD00008420002070B50446EE
:1098900000680D46008B642180B25043FEF756FCF1
:1098A00082B22946204600F001F870BDF7B50546A2
:1098B000046801980C21484307192320005D1646CF
:1098C000022801D00820FEBD7868B04206D1E169C7
:1098D000002945D068684079884741E02846FFF76D
:1098E000B7FF002801D01120FEBD69681D4A4979E3
:1098F000FE2050547968002902D0A069814210D31B
:10990000002E02D0A069B04205D8324628460199FF
:1099100003F030FC14E032462846019903F064FC61
:109920000EE0002E01D0B04205D8324628460199FB
:1099300003F0E2FC04E032462846019903F060FDA2
:109940002868C06900280BD06868064A407902215F
:109950004000921C821801981154686802F074FF4C
:109960000020FEBD84200020FFB581B006460768B8
:10997000029D0C2045432320C05DEC19002802D035
:10998000082005B0F0BD002060600498A0722C484B
:1099900000680090284631680A30085C002808D02A
:1099A000002069464870039802F06AFC002816D12E
:1099B00001E00120F5E70398785101270399384623
:1099C0008840049A1F49002A01D0C86000E08860DE
:1099D00000256019083002F0F9FC002801D00420AD
:1099E000CFE76D1CEDB2022DF3D3207A02F056FDC5
:1099F000607A02F053FD206802F08EFC0546706824
:109A0000029902F011FF0146207A2A4602F026FD53
:109A1000206802F081FC05460221706802F004FF14
:109A20000146607A2A4602F019FDE7727168064A1B
:109A30004979002049008A1802995054A1E7000092
:109A400018E001000005005086200020F8B50768E6
:109A5000054600246A68204652790C214843530089
:109A6000174AC61900219A181155F17A00290DD00C
:109A700029680A30085C002820D00021306802F0F4
:109A80006DFC306802F052FC00207060641C022CF7
:109A9000E0D369680A4AFF204979921E50546868E9
:109AA0000121006803F0B6F8686802F0A4FE686857
:109AB00002F0E6FE02202037F870F8BD0121DDE754
:109AC00086200020F7B588B00E00054609D02C6826
:109AD000204620300690C078002804D008200BB023
:109AE000F0BD0B20FBE702F06DFE002803D08528B7
:109AF00001D00420F3E702F0BBFB002805D102F0FF
:109B00008DFB002801D00320E9E70698FF210170B2
:109B10000698417006988170002007460C21414349
:109B20000B19DF72FF221A725A720022D243401CB4
:109B3000C0B262500228F1D30027E019203002F0B1
:109B400045FC002809D17F1CFFB2022FF5D3204627
:109B5000223002F097FD002803D0284603F08EFA49
:109B6000C7E70027B8003258501C12D0F019037A0A
:109B700039462846FFF7F8FE0490002804D028460E
:109B800003F07CFA0498AAE7002239462846FFF73A
:109B90008DFE7F1CFFB2022FE4D300200922224B4E
:109BA000316901E04908401C994201D99042F9D33A
:109BB0001E4A51689268029201916946087168686C
:109BC0001B4A4079029001A9686802F07BFE0700F9
:109BD00004D0284603F052FA384680E731696868B5
:109BE00002F01AFF0646A061686802F004FE012731
:109BF0000097042332460221686802F04BFE0221DE
:109C0000686802F018FE0A98E061686809494079BE
:109C1000084A80000D506968FF204979103A505475
:109C20000698C77000205AE7FF0F000018E00100F7
:109C30001DD1010094200020094B9B68002B07D008
:109C4000002A07D0002805D00068037C002B03D031
:109C50000820704707207047417442610020704718
:109C6000C4200020FFB59007002581B014460E46A1
:109C7000002832D11B4F002C31D003F02BFC04986C
:109C800078610320387033461821224600204B4368
:109C9000BC601834C10089180D704D708E704C6016
:109CA0001C19401C0328F5DBFD607D7001240E4863
:109CB000BD702405046003211420FFF78BF90B48C5
:109CC00004600B4C0198A06003211120FFF782F97A
:109CD00060683861002005B0F0BD0720FBE7BD607B
:109CE000FBE70000C420002080E200E000E100E08B
:109CF00000150140FEB50D461B491746896804460C
:109D000000292AD0002C28D0052D01D20720FEBD25
:109D10006069002821D0607C012820D0002604F052
:109D20005BF8C0001049019089684018694604F04A
:109D30007DF8002815D0012101700C494460496864
:109D40000830E2C0084901988968411868460078DF
:109D5000487003F083FE0020FEBD0820FEBD2E46A5
:109D6000DDE70420FEBD0000C420002000150140F6
:109D7000F8B5134D0446A96800291CD0002C1AD050
:109D80006069002817D00026267404F025F8C70063
:109D9000A8686946381804F049F800280DD0022157
:109DA00001704460A868391868460078487003F06C
:109DB00055FE3046F8BD0820F8BD0420F8BD00006F
:109DC000C420002010B50D4C00220B492068FFF77D
:109DD00091FF002803D000221146FFF7DFFCFF218E
:109DE00000224931E068FFF785FF002803D00022F8
:109DF0001146FFF7D3FC10BD6606000040DF0100EE
:109E0000800B01D00020704701207047F0B50C4650
:109E100093B01F216A4611800726002791800028F1
:109E200009D0C17849070DD502A9FFF776FB0028B4
:109E300009D102AD01E000251780002C0ED0E0789A
:109E4000002802D0304613B0F0BD01AA0AA920466E
:109E5000FFF763FB0028F6D10AAA02E06846002259
:109E6000878068468088C3B268460088C1B22846A9
:109E700072DFE8E770B50D4604991646040042D03B
:109E8000002E40D0424800224271C360016124226A
:109E900031464048FEF784F900F0D0F83D493431AE
:109EA0000846103801602031816038215C38FEF7A7
:109EB00090F93848217838380170A1788170E178BC
:109EC000C170617841706269216942610161E26833
:109ED000A168C26081600146E369A269CB618A61C1
:109EE000616A002919D00146AC310246B83241629C
:109EF0008A60636A1B880B80616A436A89889980DB
:109F00000021436A06E00E2070BD666AB668765C82
:109F10005654491C9E888E42F7D8A16A00291CD04D
:109F20001C4AAC3211460C398A608162A36A9B8854
:109F30008B80A16A836A098819800021836A04E002
:109F4000A66AB668765C5654491C9E888E42F7D83D
:109F50002C210A5D0F4918390A73216A002909D09A
:109F60000B4914310162226A52884A80216A026ACE
:109F7000098811806168002904D00549891D416064
:109F800061684160034829463838FFF73FFF70BDDC
:109F9000242000200C25002010B502881A4C102A1D
:109FA00017D00021112A17D0192A11D18079002841
:109FB0000ED1607901281BD002281FD003281FD0A2
:109FC000042805D12171E2680846002A00D0904794
:109FD00010BD8088208110BD6170808821898842F1
:109FE000F9D1012005E021690029F4D0884710BD8E
:109FF000022000F02BF80028F5D110BD0320F8E76F
:10A00000032020710420F4E72420002010B502284A
:10A0100001D003280ED1084C207800280AD0002057
:10A020002070607900F012F8002803D0216900291F
:10A0300000D0884710BD00002420002010B5072163
:10A040000148FEF7C6F810BD3C200020F0B5754C65
:10A0500087B06071002606A8069602F00FFE012761
:10A06000082806D000286FD10698002802D0277053
:10A07000D4E00696FFF7E2FF6B4D6878002802D027
:10A080006079012805D0A87800280AD060790228D4
:10A0900007D1E168002903D0E7700820884700E075
:10A0A000E6706079012808D16878002809D05D48F9
:10A0B000193002F0CBFD002803D06079022802D0CD
:10A0C0000CE002206071A878002805D055481930AE
:10A0D00002F0BCFD002801D103206071287B00281C
:10A0E00004D16079032801D104206071287E002802
:10A0F00004D16079042801D166712671E1680029D4
:10A100000AD06079032801D0042805D128780028D6
:10A1100002D06078002818D0A67018216846FEF793
:10A1200058F8684606700196067203966079012811
:10A130000FD0022816D03C4E243637465C3F032809
:10A140001CD004285ED13BE069E0A7700720884757
:10A15000E3E734481830019068460770468206826B
:10A16000277152E02F4818300190684607702989FE
:10A170004182A98801820220207146E0A88A6946AE
:10A180004882288A08822848243003F0D1FE00281B
:10A1900005D02878002802D06078002801D003205C
:10A1A0002FE002206946087204200396F8701E48CA
:10A1B00000213838FFF72AFE002830D1052020E0A2
:10A1C000A88B69460882288C48821748243003F0FF
:10A1D000AFFE002805D02878002802D0607800283B
:10A1E00001D004200DE00220694608720420039685
:10A1F000F8700D4800213838FFF708FE00280ED10E
:10A20000062020716079002803D0684673DF00289B
:10A2100005D1E168002901D020798847002007B0E6
:10A22000F0BD0000242000200C25002070B505465C
:10A2300001461C220E48FDF7B3FF0E4C0026267087
:10A240002968002906D00822201DFDF7A9FF201D3E
:10A250007ADF02E00748001D7BDF002807D1401E9F
:10A2600060806670044A00210448FFF7E5FC70BD79
:10A27000F82500204420002075DD0100F4DF0100F6
:10A28000F8B5214C028800271E4DE689102A15D00A
:10A290001E49112A21D0122A2DD0502A1CD1C28841
:10A2A000801DB24218D1028B022A15D1C27E837E54
:10A2B00010021843C007C00F0CD112E081886980DA
:10A2C00001461048082216310C30FDF769FF6F7007
:10A2D000002E01D100F0FAFBF8BD0020C0436880D9
:10A2E0006F700868FFF744FD0028F5D0A1690029C8
:10A2F000F2D08847F8BD811D024808220C30FDF7D6
:10A300004FFFE7E744200020F8250020F4DF01009C
:10A310007CB5054608880C460930904201D90C20CE
:10A320007CBD684671DF0028FAD121880820685476
:10A3300020881B21401C80B220802954208800A93D
:10A34000401C80B22080401906220131FDF728FF11
:10A3500020886946801D80B220800978002900D0BD
:10A36000012129542088401C208000207CBD000051
:10A3700010B50446FFF784FF2146054800F03EF87B
:10A38000204602F0FBFB2046FFF706FE10BD000052
:10A39000F027002030B5184B0D4604000FCB85B0D8
:10A3A00003936B4607C324D0002D22D00020C04366
:10A3B000A0822868A0610020A0752146684663DF5E
:10A3C000002814D121786846817401210182A21CE1
:10A3D00004A90120A0DF002809D12946204603F066
:10A3E0009BF8002803D12946204603F07DFC05B0E8
:10A3F00030BD0E20FBE70000F8DF010000281ED072
:10A4000000291CD00A88102A14D0112A14D0502AEE
:10A4100015D1CA88038A891D9A4202D10B8B022B5F
:10A420000ED083889A420AD18369002B07D00A8B09
:10A430001A311847898801E00021C9438182704799
:10A44000CA7E8B7E11021943C907C90F00D00121B2
:10A4500081757047F0B51C4E0024707887B0274690
:10A46000002807D01948FEF779FB00280BD0707838
:10A4700000281ED10025154805A96C30FEF7DAFD2D
:10A48000002802D00AE07770F4E76846017D0155A4
:10A49000641C6D1CADB2E4B2142DECD3002C08D0BA
:10A4A0000A4822466946BC3000F012F8002802D063
:10A4B000777007B0F0BD01207070FF21F5310348BF
:10A4C000FEF77EFDF5E70000F8200020342700208D
:10A4D00007B584B000280DD0828A114B9A420BD068
:10A4E000827D002A08D06A46128B142A06D90720DA
:10A4F00007B000BD0E20FBE70820F9E7002200921C
:10A5000001920292039282896B461A80039106A9F6
:10A51000029101219970808A6946A6DFE8E7000070
:10A52000FFFF00001CB50023482215490D2003F051
:10A53000BDF8002803D000221146FFF72FF90020B4
:10A540000090694601900870684660DF002803D0DB
:10A5500000221146FFF722F90A4803F09DF800286F
:10A5600003D000221146FFF719F9074803F0B6F8A7
:10A57000002803D000221146FFF710F91CBD00008F
:10A58000B421002071A30100CDD8010000B585B031
:10A59000162002F083FA14220B496846FDF700FEEC
:10A5A0000120694648720848084A8838FFF78AFA45
:10A5B000002803D000221146FFF7F0F8024888383F
:10A5C000FFF744FA05B000BDD8DF010011D101004A
:10A5D00038B500282CD001242346322215491648CC
:10A5E0000094FEF7E3FC154801230168642221432F
:10A5F0000160322112480094FEF7D8FC114801781E
:10A600006140114C01706068FFF7B2FB002803D075
:10A6100000221146FFF7C2F8012100228903606879
:10A62000FFF768FB002803D000221146FFF7B6F8B9
:10A6300038BD0000B80B000048240020FC2000209A
:10A64000602400200020002040DF010038B50028F1
:10A650002CD0012423463222154916480094FEF7D7
:10A66000A5FC1548012301686422214301603221C1
:10A6700012480094FEF79AFC114841786140114C51
:10A680004170A068FFF774FB002803D00022114638
:10A69000FFF784F8012100228903A068FFF72AFB55
:10A6A000002803D000221146FFF778F838BD0000DB
:10A6B000B80B000048240020FC200020602400206B
:10A6C0000020002040DF010038B5002816D001240A
:10A6D000234632220A490B480094FEF767FC0A48D9
:10A6E000012301686422214301603221074800945C
:10A6F000FEF75CFC064881786140817038BD00003F
:10A70000B80B000048240020FC200020602400201A
:10A71000002000200022D243830004490428CA50AC
:10A7200002D308182030027770470000142600205A
:10A73000F0B50025ED43002A02D00023042601E0F5
:10A74000042308260B4C04E09F00E7597F1C04D02B
:10A750005B1CB342F8D32846F0BD26185DB2203604
:10A7600035709E00A151002AF5D1E11820310877FB
:10A77000F1E700001426002002490918202008569D
:10A780007047000014260020F8B53E4814220178D6
:10A7900051430C18E0680C2148433A492769CC31F1
:10A7A0004018058941890091241D466802F00AFB82
:10A7B00001463846FDF7CAFC002932D00020009936
:10A7C000A2884D436188AE198918CD1900222E49FF
:10A7D00000280A6109D002F0F5FA6188884222D087
:10A7E000B54202D1A08800281DD0A06802281AD046
:10A7F00002F0E8FAA188CA1901461046FDF7A6FC46
:10A80000214C8808E06002F0DDFA01462846FDF799
:10A810009DFC002911D00020B5422FD000280ED079
:10A820002CE00120CBE702F0CDFA01463846FDF7D7
:10A830008DFC15494861032021E00120ECE7ADB211
:10A84000B7B202F0BFFA01463846FDF77FFC064674
:10A8500002F0B8FA01462846FDF778FC864201D19D
:10A86000781B09E002F0AEFA064602F0ABFA0146A8
:10A870002846FDF76BFC701A80082061022002F068
:10A88000E1FEF8BD5C2600209C20002010B50748A2
:10A8900014220178514308180079042802D000F0EE
:10A8A00059F810BD012002F0CDFE10BD5C2600203D
:10A8B00010B50B481422017851430818094AC18881
:10A8C00011620079012806D0032801D0042801D1A3
:10A8D000FFF75AFF10BD012002F0B4FE10BD0000CA
:10A8E0005C2600209C20002014225043054A0021B1
:10A8F00080180171C18001220161C2604161018142
:10A90000704700005C260020F8B5104C069E657864
:10A910000A2D19D027787D190A2D00D30A3D142756
:10A920007D432D1928716A6103C92961E860EB80B4
:10A930002E816078401C607005480078002801D1A5
:10A94000FFF7B6FF0020F8BD0420F8BD5C2600200C
:10A950009C20002010B50D4C14212078484301198B
:10A960000020091DFEF748FF2078FFF7BDFF607843
:10A97000401E60702078401CC0B220700A2801D1AF
:10A9800000202070002002F05DFE10BD5C2600203B
:10A99000F8B52348C16800293ED00E6821494C68AB
:10A9A0000769C078E11B0D022D0AED1C002814D1A7
:10A9B00001201D4A000450601B4A403A50601B4968
:10A9C000400008601A4908601A49012008602F20D9
:10A9D000FDF790FB12490120C870B54200D2354600
:10A9E000E81900020F4B000A403318600D4A516805
:10A9F000001B091B0902090A0002000AC91C814246
:10AA000009D9506818602F20FDF774FB0120074911
:10AA1000400480390860F8BD02F05CFDF8BD00001C
:10AA2000C4200020001501404013014080E200E0F6
:10AA300000E100E000100140F8B506461088144619
:10AA40008446801D0D46984201D90C20F8BD3288FD
:10AA50000720062AFAD31927FF01184BBA4201D959
:10AA60009A42F3D171880629F0D3B94201D99942AB
:10AA7000ECD19A4203D0994201D08A42E6D805210E
:10AA80006046295420881221401C80B2208029541D
:10AA90002088401C80B220804119308803F064F97E
:10AAA0002188401880B220804119708803F05CF939
:10AAB0002188401820800020F8BD0000FFFF000022
:10AAC00010B500221146FEF769FE10BDF8B5164814
:10AAD00000F0B2FB144D00260C3D144C002807D0AA
:10AAE000616900291CD001206A461070684616E092
:10AAF0002878002805D06169002911D068460670C1
:10AB00000DE0687800280DD0A1680948002200688F
:10AB1000FFF7F0F8002803D0A169002900D088478A
:10AB20002E70F8BD6168F0E750200020F825002065
:10AB3000F4DF01000E494868C005C00D16D010387A
:10AB400040B2002807DA0207120F083A9208920072
:10AB50005118C96904E08108064A89008918096802
:10AB60008007C00EC1400806800F70470420704760
:10AB700000ED00E000E400E010B5134C2079000780
:10AB80001FD46069401C6061E068002801D0042087
:10AB900004E000F083FB002803D0022002F08CFECA
:10ABA00010BD2069002809D06068C10701D00320CA
:10ABB000F4E70121084360600020EFE7FFF766FE3D
:10ABC00010BD02F06DFE10BD9C20002010B508489D
:10ABD00041680A0708D48A0702D50122114341605F
:10ABE000022002F069FE10BD02F05AFE10BD000006
:10ABF0009C200020F0B58446046840682209654B1B
:10AC000042401A401301634050401A0C424092B235
:10AC1000504012045A4083085F4C534023409C002C
:10AC20005A404440200A5D4B5040184003024240C5
:10AC300063401F20C3411046594C584020404240B9
:10AC400043401F20C241002618460424E0410C68FE
:10AC50004440A006050E5348A7094059FC258646E6
:10AC600051482F40C75970460743A002BE46800E88
:10AC700087004E48A400C05977463843A40EA70069
:10AC80004B4CE7594C6807435C40BE46A006070E94
:10AC90004848C059774638438646A70946482F405A
:10ACA000C75970460743A002BE46800E870043483E
:10ACB000A400C05977463843A40EA700404CE4597D
:10ACC000384F0443624010460424E0418C684440FD
:10ACD000A006000E3858A709864633482F40C759AA
:10ACE00070460743A002BE46800E87002F48A4008E
:10ACF000C05977463843A40EA7002D4C761CE7595F
:10AD0000CC6807435440BE46A006070E29481031C0
:10AD1000C05977463843A7092F40274DEF590743BD
:10AD2000A002800E85002548A4004059A40EA5006D
:10AD3000234C3843645904436340082E84DB0120CC
:10AD4000C341104616495840084042404340012044
:10AD5000C241100A11495840084001025140434085
:10AD600088080D4A58401040434080004840190C64
:10AD7000414089B20A045A4048401109054B4140FC
:10AD800019404840090151406246116061464860DF
:10AD9000F0BD00000F0F0F0F33333333FF00FF0000
:10ADA000AAAAAAAA34E7010034E5010034E30100AD
:10ADB00034E1010034E8010034E6010034E401002C
:10ADC00034E20100F7B5514D8E46C2B000212E4647
:10ADD000703E34AA6B5C5C07DB08240FC35C345BF9
:10ADE000234000D001235354491C3829F2D30023B7
:10ADF0007046012812D05900481C8400002206A881
:10AE000002518D0042514148A4463830C75C34ACF1
:10AE100026A8BE181C2E05D2A65D06E00F20C01A7B
:10AE20004100E9E7A619203E36798654521C1C2AB7
:10AE3000EFD31C22BE18382E01D2A65D02E0A6195F
:10AE4000203E36798654521C382AF3D32F4C0022E8
:10AE50004834A65C865D002E08D02C4F910006AECB
:10AE6000603F76597F583E4306AF7E51A618367E26
:10AE7000815D00290AD0664606A98E59234F9100AC
:10AE8000603F7F5861463E4306AF7E50521C182AF1
:10AE9000DFD35B1C102BABD33F270024BF014499A9
:10AEA00006A8BD0002463F2316689B041E40B3015E
:10AEB0000B601668001D3E40B60233430B60066807
:10AEC000641CB60A2E4033430B6006883605B60E66
:10AED00033430B603F261368360333401B034B603C
:10AEE00012789206920A13434B60026812092A40B4
:10AEF00013434B600278001D9206920E13434B6081
:10AF00000831102CCED345B0F0BD0000BCE00100EC
:10AF100010B50E4900234A788C78A24212D0521CF8
:10AF2000D2B24A70022A00D14B704A78074B920085
:10AF300018339A580260086910180002000A086164
:10AF4000012010BD0360002010BD0000C4200020BF
:10AF500010B5002803D0112802D0FEF769FC10BDFF
:10AF60000248082241681143416010BD9C20002026
:10AF700010B51C4C217820464068012906D00229D2
:10AF800029D0032912D1000717D513E0000711D4E7
:10AF900015481422017851430818C188A28B891AD8
:10AFA0000904090CC18002D002F03EFC10BDFFF77D
:10AFB000D1FC10BD00F00EFC10BD6069401C60614A
:10AFC00000F06CF9002803D0207802F03BFB10BDA4
:10AFD000FFF75CFC10BD607804498000085880478A
:10AFE00010BD00009C2000205C26002038E00100FD
:10AFF00010B528DFFFF7ACFF10BD10B529DFFFF754
:10B00000A7FF10BD3EB569461120087211480446DD
:10B01000FDF7EAF882B2214602A87CDF002803D0BF
:10B0200000221146FEF7BAFB00200090102269466C
:10B0300001900A803C224A808880FF209130C8809D
:10B0400068467ADF002803D000221146FEF7A6FBEF
:10B050003EBD0000BC24002070B51B4C20790007C9
:10B060002ED41A481422017851430D182E6901F08C
:10B07000A9FE0146E8882A89761E80188019FDF706
:10B0800065F821690025002909D06169814206D14E
:10B09000E560606801210843606000200AE000F07C
:10B0A000FDF8002802D00220E56003E020690028B6
:10B0B00003D0032002F000FC70BDFFF7E7FB70BD7A
:10B0C00002F0EEFB70BD00009C2000205C260020FA
:10B0D000F8B51E4C2078002837D02069002807D00A
:10B0E0000026E068002805D00025002E04D013E0DB
:10B0F0000126F6E70125F8E7684651DF052806D066
:10B10000002806D000221146FEF748FB04E0012685
:10B1100002E0216900988847002D12D160886946B5
:10B120000880A06861DF052806D0002806D000222C
:10B130001146FEF733FB04E0012502E0E168A06858
:10B140008847002ED8D0002DCFD0F8BDE4200020B5
:10B1500010B521490220FEF72FFB002803D0002262
:10B160001146FEF71BFB072001F098FC032001F0BD
:10B1700095FC082001F092FC092001F08FFC0E20C4
:10B1800001F08CFC182001F089FC172001F086FCEE
:10B190000C2001F083FC114981220B78D201104868
:10B1A000002B01D0826000E0C2604B780D4A002B7A
:10B1B00001D0826000E0C2608B780B4A002B01D086
:10B1C000826000E0C260CA7809214902002A01D0E9
:10B1D000816010BDC16010BDFC2100200020002056
:10B1E000000500500800000100018000012181409D
:10B1F00003484068014201D0012070470020704799
:10B200006C2000200121814003484078014201D098
:10B2100001207047002070476C200020014610B5C7
:10B2200001208840FEF7ECFD10BD01218140880718
:10B2300000D00120704700004188054802889142F3
:10B2400004D34088814201D8012070470020704714
:10B25000482000201048018CC9B2012917D1818CE7
:10B26000090714D1018D09060A0F03D1828D120638
:10B27000120F0ED0090F012903D1828D1206120F71
:10B2800007D0032903D1808D0006000F01D00020D4
:10B290007047012070470000C00F00F070B50E48E5
:10B2A0001422017851430C18256901F08BFD0146E9
:10B2B000E08822896D1E80184019FCF747FF074976
:10B2C0004A69824206D3824202D10869002801D02D
:10B2D000002070BD012070BD5C2600209C20002055
:10B2E00001218140880400D001207047800701D0EF
:10B2F000002070470120704730B51588EC1C9C4237
:10B3000001D90C2030BD02244C5513881C255B1C30
:10B310009BB21380CD5413885B1C9BB21380012811
:10B3200007D0022807D0032807D0042807D0072019
:10B3300030BD002004E0012002E0CC5401E00320F5
:10B34000C8541088401C1080002030BD10B5174B29
:10B3500000221C781146002C00D001225C78002CC1
:10B3600001D0022422439C78002C01D004242243E3
:10B37000DC78002C01D008242243002801D00221CF
:10B3800002E0002A00D101219879814209D0997107
:10B39000022907D0012907D0002201210448FEF725
:10B3A00075FA10BD6422F8E70522F6E700200020B8
:10B3B00050DF0100F8B52C49C8680A690C780F798C
:10B3C00089688646944600913EE00099E20055184F
:10B3D0002A7836E0182353436968521CC918AB78A1
:10B3E000D2B2934200D100220B78022B02D0032B61
:10B3F00027D123E04E680346014603E0B14204D062
:10B400000B46C96900291CD0F8E7002919D08B42E6
:10B4100008D1C069002805D1144F0126BE6000265E
:10B42000B44601270E68C969D961002909D00B68A3
:10B430009B190B6005E00174C06900E00021002841
:10B44000F9D169789142C5D12146641EE4B2002940
:10B45000BBD1054962460A61C8600F71704501D0D1
:10B460000120F8BD0020F8BDC420002000100140DC
:10B47000F8B5044631480026C168009107784EE0CF
:10B480002E48F90080680D1843E0002C02D02046B9
:10B49000E4691FE02878182141436A68401CC0B263
:10B4A00051182870AA78904200D12E700A78486806
:10B4B000012A30D1027C002A2DD18A684260CA68F4
:10B4C00082600A69C260496981611C490979002961
:10B4D00000D04660194943680A699C46991A0902D6
:10B4E000174B090A994202D28268891807E061461F
:10B4F000511A09028268090A8A4202D9511A016066
:10B5000000E006604660012186600174C66102F0B9
:10B51000ADFA002CB9D1287869788842BAD138467A
:10B520007F1EFFB20028ABD10448C1680098814259
:10B5300001D00120F8BD0020F8BD0000C42000208B
:10B54000FFFF7F00864888B084490160FFF700FE56
:10B5500002F080FBFEF7E6FF824871DFFDF77CF921
:10B5600081480124C4600321C903416081682143EB
:10B5700081607E4804607F487D4F0760FFF742FD91
:10B580007D480090002569467C48FEF703FF0028AF
:10B5900003D000221146FEF701F9FEF7C9F81C217D
:10B5A0006846FCF716FE0520C00301900F2000043A
:10B5B00002900095032168460173C58105747048A7
:10B5C0000590704806906846FEF730FE002803D0CC
:10B5D00000221146FEF7E2F8FDF70CF90320FEF712
:10B5E00035FD002803D000221146FEF7D7F8664B40
:10B5F000002201216548FDF77BFC654B00220121FB
:10B600006448FDF775FC644B002201216348FDF797
:10B610006FFC00231A4601216148FDF769FCFEF723
:10B62000B5FFFDF7DBFBFF20F53000F0B9FD5D490C
:10B630003720FDF78BF94B4E0E3E002809D03471B0
:10B6400032220123114658480094FDF7AFFC022036
:10B6500009E035710A203222009001231146524838
:10B66000FDF7A4FC052000900123642232214F48FD
:10B67000FDF79CFC4E494F48FDF7A2FCFEF7A2FBEC
:10B680004C484D491830FDF79BFC484F3949384824
:10B690000860334801683148C04381420BD1787B50
:10B6A000012808D0BFF34F8F45494448C860BFF315
:10B6B0004F8F00BFFDE7FDF727F948DF002803D0D3
:10B6C00000221146FEF76AF8FDF744F8FEF7C2FEC5
:10B6D000FDF708FD3079002811D13648FDF73EFA14
:10B6E00000280CD12F493720FDF730F9002801D070
:10B6F000347100E035712E492E48FDF761FC234876
:10B70000407800280CD123484078002808D12348ED
:10B710004078002804D1274827491830FDF750FC0D
:10B7200024481830FDF71AFA0028AFD1787B012899
:10B7300007D0052000900123642232211B48FDF729
:10B7400035FC04221FA12148FCF72AFD20481A4994
:10B75000047018481830FDF733FC97E7A5A5A5A598
:10B76000003F00200E2000200005014000000140A5
:10B770003546526E0006014015CB0100F02700202F
:10B78000F1CB0100C1AA0100D1A50100782400205D
:10B790004DA6010084240020C9A6010090240020A9
:10B7A0009C24002058DF0100482400206024002051
:10B7B000B80B000000240020102700000400FA0548
:10B7C00000ED00E03132333400000000B8240020E6
:10B7D0001920002010B504480822416891434160B7
:10B7E000007801F02FFF10BD9C20002070B514469A
:10B7F00082880E4605462088111D4118921C9942E8
:10B8000001D8FE2A01D90C2070BD521C3254208868
:10B81000FF21401C80B2208031542088401C80B21F
:10B8200020808119288802F09FFA2188401880B270
:10B830002080AA88002A09D0A968002908D0801988
:10B84000FCF7AEFC2088A98840182080002070BD3D
:10B85000072070BDFEB5054600680E468446C0054B
:10B86000870ED0001446002A34DD69685317C918C2
:10B8700063461B182B606960834201D2491C6960D2
:10B88000284618300190002F1BD0B818402801DD41
:10B890004020C21BE819314618300092FCF780FCAA
:10B8A000009AB818402815DBB618A41A2846019942
:10B8B00000F052F805E03146284600F04DF8403CD3
:10B8C0004036402CF7DA002C04D02246314601984D
:10B8D000FCF766FCFEBD00007CB50D460446002268
:10B8E00069469008800020589307DB0ED8408854A2
:10B8F000521C082AF5DB20883721C008081A820666
:10B90000920E0B492046521CFFF7A4FF08226946FD
:10B910002046FFF79FFF00229008800000198068F2
:10B920009107C90EC840A854521C102AF4DB7CBDF4
:10B9300038E9010000214160016005498160054945
:10B94000C1600349C94301610249C943416170476C
:10B950000123456789ABCDEFF0B50446AFB08068F1
:10B960000290E5682069039060690090FE480078C5
:10B97000002807D0880718D040221FA8FCF710FC29
:10B980001FA912E00B461FA900205E781A78360224
:10B9900092199E78DF7836043F06F61987009619CB
:10B9A000401C1B1DCE511028EFDB039A2846104087
:10B9B000009AAA431043ED4A83180A680298049239
:10B9C00010181D9218181922D0414219039B1046D5
:10B9D000284093431843E64BC6184868009B0C90D8
:10B9E0001C90C01830181423D841831818462E46CE
:10B9F00010409E433043DF4E87198868039E0590B0
:10BA0000801938180F26F041C618304617461840DE
:10BA1000B7433843D84FC719C86811904019381830
:10BA20000A25E841801905461F46354087433D43B6
:10BA3000D24FEF190D690B95AA18BA18169519254A
:10BA4000EA4115182A4637460240AF433A43CC4FE5
:10BA5000D7194A690E921B92D218BA181423DA41E8
:10BA60005219134607462B4097433B43C54FDF19F6
:10BA70008B6906931A939B19FB180F26F3419B18A9
:10BA80001E462F4616409F433E43BF4FF719CE69CF
:10BA90001396301838180A26F041C0180646174683
:10BAA0001E4087433E43B94FF7190E6A0896751931
:10BAB0007D191926F5412F183D461E460540BE4307
:10BAC0003543B34EAE194D6A0795AA181595B218AD
:10BAD0001425EA41D619324605463A40B5432A4371
:10BAE000AC4D55198A6A0F921992D218AA180F23D1
:10BAF000DA41921913463D46334095432B43A64DF8
:10BB00005D19CB6A0A931818189328180A23D8418C
:10BB10008518284633461040AB4318439F4BC31843
:10BB2000086B0990C01918181923D84143191846F1
:10BB3000174628409F433843994FC719486B84469E
:10BB4000801938181426F041C7183E4628461E4072
:10BB5000B843064393483618886B0D9012908018AE
:10BB600030180F22D041C219104638401E46964365
:10BB700006438D483618C86B109086464019301819
:10BB80000A21C84181180D4610463940B843014387
:10BB9000864E1C988919C01808181B21C8414019E5
:10BBA00003462946134091430B43814959181A9B78
:10BBB000DB19C9181723D9410E18374603462E4002
:10BBC000AB431E437B49189B71189A18891812229F
:10BBD000D141CA1913463E46024086437649324354
:10BBE00056181D9A511971180C22D141CD182946A9
:10BBF0001A463940BA431143704A8E181B9A1018DE
:10BC000030181B21C841411908462A4618409A435A
:10BC10006B4E02439019199AD21980181722D041FD
:10BC200047183E4608462E40A8430643654A7046DC
:10BC3000B618C01830181222D041C31918463A4617
:10BC400008408A431043604A821816984019101819
:10BC50000C22D041C21810461D463840BD4328432F
:10BC60005A4D4019159D691840181B21C84181186B
:10BC70000846154618409D432843554D0E46451924
:10BC800012989643C01928181725E8414018054610
:10BC9000154035434F4EAE19119DEB18F318122580
:10BCA000EB411B181D4606460D408E4335434A4E58
:10BCB0006144AE19089DAA18B2180C25EA41D218A1
:10BCC00015461E46054086433543444EAE1971184D
:10BCD0001B25E94189180D4616461D409E433543F4
:10BCE0003F4EAE19059D281830181725E841401819
:10BCF00005460E461540964335433A4EAE19139D00
:10BD0000EB18F3181225EB411D182B4606460B4085
:10BD10008E433343344E9E19099B9A18B2180C2354
:10BD2000DA410E9B5219591813466B4043402F4E6F
:10BD30009B19C9181C23D941089B891818180B4650
:10BD400053402B4E6B409B19C0181523D8410A9BBA
:10BD500040185B1905464D40264E5540AD195B19FC
:10BD60001025EB411B1847E034E9010078A46AD79D
:10BD700056B7C7E8DB702024EECEBDC1AF0F7CF50F
:10BD80002AC68747134630A8019546FDD898806992
:10BD9000AFF7448BB15BFFFFBED75C892211906B7C
:10BDA000937198FD8E4379A62108B44962251EF649
:10BDB00040B340C0515A5E26AAC7B6E95D102FD6DF
:10BDC0005314440281E6A1D8C8FBD3E7E6CDE121B4
:10BDD000D60737C3870DD5F4ED145A4505E9E3A915
:10BDE000F8A3EFFCD9026F678A4C2A8D4239FAFF1B
:10BDF00081F6718722619D6D0D9DA44EAA181D4686
:10BE000045404D40AD1952190925EA410C9DD21803
:10BE1000691815465D409E4E4540AD1949191C25CF
:10BE2000E9410B9D891828180D465540994E5D40F3
:10BE3000AD1940191525E841139D4018EB1805462A
:10BE40004D40954E5540AD195B191025EB410F9DA6
:10BE50001B18AA181D4645404D40904E6144AD192F
:10BE600052190925EA41D21815465D408C4E4540CD
:10BE7000AD1949191C25E941049D891828180D465A
:10BE80005540884E5D40AD1940191525E841119D7A
:10BE90004018EB1805464D40834E5540AD195B19CF
:10BEA0001025EB41069D1B18AA181D4645407F4EE4
:10BEB0004D40AD1952190925EA41079DD21869185C
:10BEC00015465D407A4E4540AD1949191C25E9419A
:10BED000099D891828180D4655405D40754E7344DC
:10BEE000AD1940191525E841401805464D40724EE0
:10BEF0005540AD195B191025EB41059D1B18AA187B
:10BF00001D4645406D4E4D40AD1952190925EA4177
:10BF1000049DD2186918C5431543694E5D40AD199B
:10BF200049191A25E941139D89182818DD430D4345
:10BF3000644E5540AD1940191625E8410D9D401835
:10BF4000EB18D5430543604E4D40AD195B191125E3
:10BF5000EB410E9D1B18AA18CD431D435B4E454077
:10BF6000AD1952190B25EA41099DD2186918C5432C
:10BF70001543574E5D40AD1949191A25E941119DE8
:10BF800089182818DD430D43524E5540AD1940190C
:10BF90001625E8410F9D4018EB18D54305434E4E3A
:10BFA0004D40AD195B191125EB410C9D1B18AA18CA
:10BFB000CD431D43494E4540AD1952190B25EA4169
:10BFC000089DD2186918C5431543454E5D40AD190B
:10BFD00049191A25E9418918DD430D43414E554061
:10BFE000AD19704440191625E841069D4018EB181C
:10BFF000D54305433C4E4D40AD195B191125EB412E
:10C000001B18CD431D43394E4540AD1962445219AA
:10C010000B25EA410B9DD2186918C5431543344ED0
:10C020005D40AD1949191A25E9410A9D891828185A
:10C03000DD430D432F4E5540AD1940191625E841FB
:10C04000059D4018EB18D54305432B4E4D40AD19C7
:10C050005B191125EB41079D1B18AA18CD431D4301
:10C06000264E4540AD1952190B25EA41A568D21854
:10C070006918A160E1688918E1602169C918216126
:10C080006169081860612FB0F0BD00000C38E5FD53
:10C0900044EABEA4A9CFDE4B604BBBF670BCBFBE6A
:10C0A000C67E9B28FA27A1EA8530EFD4051D8804B7
:10C0B00039D0D4D9E599DBE6F87CA21F6556ACC42B
:10C0C000442229F497FF2A43A72394AB39A093FC79
:10C0D000C3595B6592CC0C8F7DF4EFFFD15D8485F5
:10C0E0004F7EA86FE0E62CFE144301A3A111084E79
:10C0F000827E53F735F23ABDBBD2D72A91D386EB75
:10C10000F8B50F46017814460546012902D1687832
:10C11000002806D02088821C9A422DD8012902D0FE
:10C1200006E00720F8BD69784118891C994223D898
:10C13000181A801E86B2684606802188B81C081826
:10C1400069467DDF0028EDD12878022805D16946AF
:10C150000988B14201D809210AE00821012805D146
:10C160006878B04202D86A46108001E068460680CE
:10C1700068460088FE2801D90C20F8BD2288401CA2
:10C18000B8542088401C80B22080395420886946E9
:10C19000401C20800988401820800020F8BD000045
:10C1A00031B5054C04E0401E00902046FBF792FF9D
:10C1B00000980028F7D138BDE70300008207D30EAE
:10C1C000FF229A408907090E10B5994000280BDA22
:10C1D00003071B0F083B9C080C4BA400E318DC6909
:10C1E00094430C43DC6107E08408094BA400E41885
:10C1F000236893430B432360C106C90E0120884086
:10C20000044908600449086010BD000000ED00E02A
:10C2100000E400E080E200E000E100E070B5124DD3
:10C220002879002801D0082070BD0F49002040392E
:10C23000421E0B182033401CC0B21A702028F8D3BD
:10C2400000242046FEF766FA641CE4B2082CF8D3FA
:10C2500003210620FFF7B2FF01200449C007486010
:10C2600001202871002070BD54260020006300408A
:10C2700002480079002800D0012070475426002091
:10C28000FEB5044620480D4600190026203081578F
:10C29000491C01D0082633E0A97800291DD00122CD
:10C2A00000212046FEF744FA411C14D083001748B1
:10C2B0002A78181869780369154F3B4003610369B0
:10C2C000E706FF0C9207920BC907C90A3B430A43D2
:10C2D0001343036104E0042612E00121C943017005
:10C2E0006A780120A0400B49012A0BD0C8600021C8
:10C2F00000910B46012201912046114600F098FB67
:10C300003046FEBD8860F2E714260020006500403C
:10C31000FFE0ECFF0005005010B5FEF72DFA800697
:10C320000149000E401810BD00600040094909187D
:10C330002020085681000848091808690322104384
:10C340001F22120202430A6100BF00BF00BF086142
:10C35000704700001426002000650040002900D02E
:10C360000121074A12182020105682000548121891
:10C37000106901231B0598430905084310617047A4
:10C38000142600200065004010B5044600F06AFC49
:10C3900000280DD02046FEF7EFF9C0B2FEF7BAF93B
:10C3A0002046FEF7E9F9074A002180008018016164
:10C3B000054800210019C94320300170204600F0D3
:10C3C0005BFB10BD0065004014260020F1B5042081
:10C3D00082B0204E00250090002069460871FEF7CB
:10C3E000A9FB0746012809D001A836DF02280FD093
:10C3F000002803D000221146FDF7D0F90124AC40FB
:10C4000034420FD02846FEF7F1FE002802D009E0A2
:10C4100072B6F3E710484168214341600298057005
:10C4200000200090012F0BD062B66846007937DFFC
:10C43000022805D0002803D000221146FDF7AEF9EE
:10C440000098002804D06D1CA643EDB2002EC3D185
:10C45000FEBD0000FF3F00006C20002070B51446B8
:10C460000D00064611D0002C0FD0FEF739FF002832
:10C470000DD03046FEF7BAFE00280AD00648F1007B
:10C48000081805614461002070BD0E2070BD0720B2
:10C4900070BD082070BD000000F5014010B50446D5
:10C4A000FEF7BCFE00280FD02046FEF719FF00283B
:10C4B00004D02046FEF79AFE002807D00120044948
:10C4C000A0408860002010BD072010BD082010BDCE
:10C4D00000F5014010B50446FEF7A0FE00280FD07D
:10C4E0002046FEF7FDFE002804D02046FEF77EFE23
:10C4F000002807D001200449A0404860002010BD5A
:10C50000072010BD082010BD00F5014038B50546D4
:10C51000FEF7E6FE002829D001241648AC408460CE
:10C52000002069460870FEF705FB0546012809D082
:10C53000684636DF02281BD0002803D000221146AF
:10C54000FDF72CF90C484168A1434160012D0BD047
:10C5500062B66846007837DF022805D0002803D08D
:10C5600000221146FDF71AF9002038BD072038BD1A
:10C5700072B6E7E700F501406C200020F8B50646EA
:10C580000C460846FEF751FE002833D02046FEF741
:10C5900039FE00282CD03046FDF732FC002829D087
:10C5A000002069460870FEF7C5FA0546012809D043
:10C5B000684636DF02281FD0002803D0002211462B
:10C5C000FDF7ECF80D48A10008180168314301603F
:10C5D000012D0BD062B66846007837DF022805D0FF
:10C5E000002803D000221146FDF7D8F80020F8BD3E
:10C5F0000820F8BD0720F8BD72B6E3E700F8014057
:10C60000F8B506460C460846FEF70FFE002833D064
:10C610002046FEF7F7FD00282CD03046FDF7F0FB52
:10C62000002829D0002069460870FEF783FA0546E5
:10C63000012809D0684636DF02281FD0002803D021
:10C6400000221146FDF7AAF80D48A100081801685C
:10C65000B1430160012D0BD062B66846007837DF28
:10C66000022805D0002803D000221146FDF796F8D5
:10C670000020F8BD0820F8BD0720F8BD72B6E3E73A
:10C6800000F80140F1B5042082B003260025009097
:10C69000002069460871FEF74DFA0746012809D0C7
:10C6A00001A836DF02280FD0002803D0002211464F
:10C6B000FDF774F80124AC40344210D02846FEF750
:10C6C000A1FD002802D00AE072B6F3E70F48214628
:10C6D0004278114341700298057000200090012FAC
:10C6E0000BD062B66846007937DF022805D00028F3
:10C6F00003D000221146FDF751F80098002804D01D
:10C700006D1CA643EDB2002EC2D1FEBD6C200020F0
:10C7100010B50446FEF789FD00280BD02046FEF731
:10C7200071FD002808D0054A0120E1008918086041
:10C73000002010BD072010BD082010BD00F00140F2
:10C74000F8B50446FEF771FD002830D02046FEF70C
:10C7500059FD00282DD019490126E00040184660F7
:10C76000002069460870FEF7E5F90546012809D062
:10C77000684636DF02281ED0002803D0002211466A
:10C78000FDF70CF80E48A6404178B1434170012DE9
:10C790000BD062B66846007837DF022805D0002843
:10C7A00003D000221146FCF7F9FF0020F8BD072056
:10C7B000F8BD0820F8BD72B6E4E7000000F00140C3
:10C7C0006C20002004480178002901D085207047A2
:10C7D00001210170002070476C20002015220068A4
:10C7E00089009201891840587047026888004030DB
:10C7F000C0B21018704700680121C160704770B561
:10C80000012424048C40032605683602AD19002B50
:10C8100001D06C6000E0AC60006889000818052158
:10C8200009024018026470BD02688800FF30413080
:10C8300080B210187047026801200004884003216C
:10C8400009025118886070478A0010B5FF324132E2
:10C85000036892B200249C500268012000048840C2
:10C86000032109025118486010BD0000026801212F
:10C8700011614079014A115470470000582000208E
:10C88000016801220A604079014A0221115470476F
:10C8900058200020F0B5FF25023504688D40FF3494
:10C8A000FF340234059E2768AF4327600468FF34D5
:10C8B000FF34023425681D4325603346FFF79FFF90
:10C8C000F0BD0000F8B504464079254F0D46395CAF
:10C8D0001646002901D00820F8BD002D02D12149BB
:10C8E000C000451820492068884236D00420E978E5
:10C8F0002056FFF763FC6179194A89000C32686899
:10C900005050002E29D060791146800008390E5011
:10C91000052022680002121869785368C9075B086D
:10C920005B00C90F0B4353602168AA7809188B6814
:10C9300092079B089B00920F13438B6021682A7813
:10C9400008180169120709090901120F1143016151
:10C950006179012078540020F8BD0720F8BD00005F
:10C960005820002008E0010000800040F8B50025B4
:10C970000E4604462F46A800FF30413080B22158B1
:10C98000002910D001210904A94003221202A21893
:10C9900052680A4207D02750B2000549044B895813
:10C9A000083B9A5890476D1C042DE4D3F8BD000055
:10C9B0006420002070B503460079C106C90E01202D
:10C9C00088401249086058791149002480000C50B1
:10C9D0001846FFF74BFF18680E49FF30FF30023052
:10C9E00002688A43026001220020120403263602F4
:10C9F00011461D688140AD19A960401C0428F7D379
:10CA000003495879091F0C5470BD000080E100E013
:10CA10005C2000200F0F0000012200680523520255
:10CA20001B02C0180069C2404A4350097047000009
:10CA300030B552000A439900039C0A432102049D29
:10CA40000A4329040A43024980004018026030BDAD
:10CA50000007005030B552000A439900039C0A4376
:10CA60002102049D0A4329040A4302498000401818
:10CA7000026030BD000700501CB5002100910B463C
:10CA800001220191FFF7D4FF1CBD1CB500220B460B
:10CA9000009211460192FFF7DDFF1CBD024A0321FF
:10CAA0008000801801607047000700501CB500210D
:10CAB00000910B46012201911146FFF7CBFF1CBDEF
:10CAC000820006481018026803231B049A43026080
:10CAD000026809040A430260704700000007005022
:10CAE000012181400148C1607047000000050050ED
:10CAF000012181400148816070470000000500501D
:10CB0000034940180068012800D000207047000049
:10CB100000600040F8B516460D46002403E0285D8D
:10CB2000FBF704FE641CB442F9D32878642810D1C2
:10CB3000687866280DD1A87875280AD1052000905C
:10CB40000123642232210348FCF730FA03490248EA
:10CB50000860F8BD602400205A5A5A5A003F00204D
:10CB600010B5002808D10320FDF770FA002803D083
:10CB700000221146FCF712FE10BD000070B51A49E4
:10CB800005880C89132D19D00BDC0022174B012DC1
:10CB900027D0102D0FD0112D02D11A70501E0881F0
:10CBA00070BD392D03D0522D13D0552DF8D113213E
:10CBB000204676DF12E01A708088F0E700231A46DC
:10CBC000852120467FDF09E000221146FCF7E6FDC3
:10CBD00070BD00231A4619462046A9DF0028F3D16C
:10CBE00070BD1A7070BD000000200020F9200020E8
:10CBF00010B50078002809D105483B21008976DF6F
:10CC0000002803D000221146FCF7C8FD10BD00002B
:10CC100000200020074A904201D1074803E0074A5C
:10CC2000904202D10648C1607047064A9042FBD14B
:10CC30000548F8E700800040008C0040009000406C
:10CC4000009C004000A0004000AC00400021425C7D
:10CC5000002A01D001207047491C0629F7D3002083
:10CC6000704700000449081820214156042901D2C8
:10CC700001207047002070471426002007490979D9
:10CC8000490701D408207047002804D00449497896
:10CC90000160002070470E20704700009C2000209B
:10CCA0005C26002030B5124B1B795B0701D40820AD
:10CCB00030BD002805D0002A03D00468002C10D114
:10CCC00001E00E2030BD0B4B1D68002D09D04568DA
:10CCD0001889414369185D89454358682818884276
:10CCE00001D8072030BD14600020516030BD000025
:10CCF0009C2000202827002070470000FEB5054634
:10CD000025480E460079400701D40820FEBD002DBD
:10CD100003D02868002834D101E00E20FEBD1F4C4E
:10CD2000216800292DD06089218948436168411814
:10CD30006868814225D9FEF7D9FA00280FD06868C3
:10CD4000019029680C2251430F1979680091401A0B
:10CD500039890C46FBF7FAF9002912D101E01020BD
:10CD6000FEBD21463046FBF7F1F9002909D1002E1E
:10CD700007D07889444301988119009800198142AD
:10CD800001D90720FEBD0020024600903346294607
:10CD90000320FDF7B9FDFEBD9C20002028270020C0
:10CDA00010B507484469601C06D000F00BF8014636
:10CDB0002046FBF7CBF910BD01200007406910BDEC
:10CDC0000010001001200007006980B270470000C9
:10CDD00070B5002411482546047044702846FDF7BC
:10CDE00083FD6D1C0A2DF9D30D4D6C80FFF7D8FF24
:10CDF000861EFFF7E7FF46430848AE60CC306C6103
:10CE00000460048144812846243004602C70AC61A5
:10CE10000420EC616860002070BD00005C260020EA
:10CE20009C200020FFB5274881B000791F46164698
:10CE30000D46400702D4082005B0F0BD002D06D0F5
:10CE40000198002803D02868002815D101E00E20A1
:10CE5000F2E71D4C206800280ED0618920896268A5
:10CE6000414389186A68914206D9002E04D0B04225
:10CE700002D3F119814201D90720DDE70198FEF7BD
:10CE800035FA00281BD03846FEF730FA002816D0B5
:10CE90006868FEF72BFA002811D068683246C1197D
:10CEA0000198FBF77DF9009628680C214843245827
:10CEB000002202212846019BA0470020BCE7102049
:10CEC000BAE700009C20002028270020F8B52C4D50
:10CED000044628790E46400701D40820F8BD002CEE
:10CEE00020D0002E1ED0206800281BD0FFF76AFF3C
:10CEF0000146A088814213D3102811D3E08800286E
:10CF00000ED0FFF74DFF471EFFF75CFF4743E28857
:10CF1000A188A8684A431218974201D3890703D011
:10CF20000720F8BD0E20F8BD6988012926D03160A0
:10CF30000C22144B51437060CA185060206858503E
:10CF4000A0881081E0885081FFF73CFF0646FFF77C
:10CF500039FFA188E288401E514340183146FBF753
:10CF60000BF90446FFF72EFF0146A8686143081835
:10CF7000A8606888401C68800020F8BD0420F8BDC7
:10CF80009C20002028270020F8B5044620481E4693
:10CF9000007915460F46400701D40820F8BD002F40
:10CFA00005D0002C03D02068002815D101E00E2008
:10CFB000F8BD1848016800290ED0428901894068EF
:10CFC0004A4310186268904206D9002D04D0A94245
:10CFD00002D3A819884201D90720F8BD3846FEF7C8
:10CFE00085F9002811D03046FEF780F900280CD0D2
:10CFF0006068FEF77BF9002807D02B463A462146A9
:10D0000001200096FDF780FCF8BD1020F8BD00005F
:10D010009C2000202827002010B5114902460878DE
:10D02000002811D004280FD0022A16D0032A0BD1D1
:10D030000A79120711D48A69521C8A61032A08D01E
:10D04000022802D000F0FEFA10BD487800F034FC4F
:10D0500010BD0D20FCF7ECFB10BDFDF789FF10BDE6
:10D060009C20002010B500680C2251430C18207A37
:10D07000FFF714FA607AFFF711FA10BDF1B582B02C
:10D08000029800240568281920300078FF2801D074
:10D09000FFF73CFA641CE4B2022CF4D32220405D7A
:10D0A000FF2801D0FFF74CFB002420460C21484309
:10D0B000002647190090B8190190007AFF2804D083
:10D0C000FFF724FA0199FF200872761CF6B2022EAF
:10D0D000F1D300982858411C05D0FFF755F90021DD
:10D0E0000098C94329500020641CE4B2F872022C55
:10D0F000DBD302984068FFF75DFCFEBD10B5046805
:10D1000020342078FFF7CAF96078FFF7C7F910BD1F
:10D1100001490120C871704700200020F8B50D4674
:10D1200013480127002449000E18305D002806D05E
:10D13000305D401E3055305D00280FD00027641C44
:10D14000E4B2022CF1D3002F07D00948A9000E3019
:10D15000405802214068FFF76EFBF8BD0448A90063
:10D160000E3040580068C16928468847E7E700004C
:10D1700086200020FEB50C46016805460091204639
:10D180000C21484300990190471816462846FFF79E
:10D19000B5FF21462846FFF765FF01980A30002EAB
:10D1A00009D000998969B1420FD88EB22968085C0C
:10D1B000002804D005E02968085C002801D000217F
:10D1C00000E001213868FFF7C9F800233246214604
:10D1D0006868FFF714FB7E606968024A4979FF209E
:10D1E0005054FEBD84200020F7B582B00446056887
:10D1F00003980C21484347192035AE7803980090D6
:10D200002046FFF77BFF20460399FFF72BFF002303
:10D210006068049A0099FFF7F2FA31463348FFF745
:10D22000EFF9397A012002468A40797A8840104322
:10D230003146FFF7A3F979682D48002934D0F10071
:10D240000E1802216068FFF7EFFA0146287832468F
:10D25000FFF704F90023012203216068FFF7CFFAEA
:10D260006068002140798200224881500321606873
:10D27000FFF7BBFA064602216068FFF7D5FA0146C0
:10D2800068783246FFF7EAF82878FFF723F96878DC
:10D29000FFF720F9049878606168164A03204979FD
:10D2A000083A505405B0F0BDF1000E1860680399BB
:10D2B000FFF7BAFA014628783246FFF7CFF8002385
:10D2C0001A4603216068FFF79AFA60680399FFF72E
:10D2D00085FA616849798A000649885003216068A7
:10D2E000FFF783FA064660680399C6E7FF3F000030
:10D2F00000F001408C200020F7B5076882B004469A
:10D3000003980C214843C2193D4620350092AE785F
:10D310002046FFF7F3FE31463648FFF771F9009AD1
:10D320000121127A08469040009A527A91400843AF
:10D330003146FFF723F904992F48002938D0398B5B
:10D3400089B20491F1000E1802216068FFF76CFAAF
:10D35000014628783246FFF781F800230122032195
:10D360006068FFF74CFA606800214079820023482A
:10D37000815003216068FFF738FA06460221606891
:10D38000FFF752FA014668783246FFF767F82878C7
:10D39000FFF7A0F86878FFF79DF8009904984860B7
:10D3A0006168164A03204979083A505405B0F0BD27
:10D3B000F1000E1860680399FFF736FA01462878E5
:10D3C0003246FFF74BF800231A4603216068FFF747
:10D3D00016FA60680399FFF701FA616849798A00D3
:10D3E0000649885003216068FFF7FFF90646606828
:10D3F0000399C5E7FF3F000004F001408C200020A6
:10D40000F7B582B00546046803980C214843071914
:10D410002034A6782846FFF771FE31462B48FFF7E7
:10D42000EFF8227801210846904062789140084345
:10D430003146FFF7A3F868680399FFF7D6F9009023
:10D4400003216868FFF7F0F901462078009AFFF79A
:10D4500005F868680521006809024018006900069F
:10D46000000E13D0002104980818796888420FD262
:10D470003868FEF751FF009003216868FFF7D4F980
:10D4800001466078009AFEF7E9FF07E00121EAE72C
:10D490006278012031469040FFF7B2F80498786036
:10D4A000002368680321049AFFF7A9F93046FFF7C3
:10D4B0002FF96968064A49790498890050506968CB
:10D4C00003984979083A505405B0F0BDFF3F000079
:10D4D0008C20002070B501240B49600408600B49C2
:10D4E00040108860094940398860094D6C602F20E0
:10D4F000FAF700FEAC60074D00242F202C61FAF7EC
:10D50000F9FDEC7070BD000080E100E040130140C7
:10D5100000100140C420002070B500240546601CA6
:10D5200090B00007000F08A9103008940870601C24
:10D530000007000F103048708878F9263040801CB2
:10D5400088701C2101A8FAF744FE69460879102169
:10D55000084369460871029408A804940594079446
:10D560000690287808A988710320694688841120CC
:10D570000094087048708878F7213040801C08407B
:10D58000EF210840012630436946887014210AA81B
:10D59000FAF71FFE09A80A9068460B9069460E86A6
:10D5A00014204C8688862B4668880C330AAA01A969
:10D5B000A2DF10B070BDFFB50746806A81B0144687
:10D5C00000283DD0002538462030009033E00C2064
:10D5D000B96A68430E18B088801CFE2802D90C2056
:10D5E00005B0F0BD22880299401C8854208816227C
:10D5F000401C80B2208002990A542088401C80B2CE
:10D60000208002994118308800F0AEFB2188401834
:10D6100080B22080B288002A0AD0B16800290FD0D9
:10D62000029BC018FAF7BCFD2088B1884018208002
:10D630006D1C0098EDB2007BA842C8D80020CFE74F
:10D640000720CDE710B50F490028087009D0012840
:10D6500011D0022812D0032802D14869FDF7C8FC76
:10D6600010BD00208861C861074840780028F7D0C5
:10D67000FDF71EF910BD00F0D7F810BD00F038F826
:10D6800010BD00009C2000205C26002010B508463C
:10D690001146C046C04610BD002803D00249C860EC
:10D6A000002070470E207047E420002070B500294C
:10D6B00001D08C0701D0072070BD064C0125A16068
:10D6C00062800549636010DF0028F5D125701620BF
:10D6D0002EDF70BDE42000208DD60100002803D08D
:10D6E00002490861002070470E207047E4200020A6
:10D6F000F8B5164C14226068400840006060144879
:10D70000017851430E183769FFF75CFB0146384634
:10D71000FAF71CFD05466061FFF754FB0146F088EF
:10D720007F1EC019FAF712FD02228542606801D1FE
:10D73000104300E090436060E1681040084303D06C
:10D74000002000F0B9F8F8BD0220FAE79C20002084
:10D750005C26002010B502484069FDF749FC10BD69
:10D760009C20002010B5FFF71BFB441EFFF72AFB8F
:10D770004443FFF727FB04494A69521E5043CA68D5
:10D780002146FDF73AFC10BD9C200020F8B510485A
:10D790001422017851430C182569FFF713FB014649
:10D7A000E088228980184019FAF7D0FC0F46FFF76D
:10D7B000F7FA461EFFF706FB4643E0882289F11977
:10D7C0008018044A40191269FDF717FCF8BD0000E3
:10D7D0005C2600209C20002070B5FFF7F3FA054678
:10D7E000FFF7DEFA441EFFF7EDFA60432946FAF729
:10D7F000ADFCFDF7FDFB70BD70B5FFF7E3FA8608E1
:10D80000FFF7E0FA0749496948430446FFF7C8FAB9
:10D81000451EFFF7D7FA684332462146FDF7EDFB78
:10D8200070BD00009C20002070B5144814220178BF
:10D8300051430C18241DFFF7C5FA6188104E884229
:10D8400011D2FFF7BFFA61880D1AFFF7BBFA820801
:10D85000A188E0684018216940194919FDF7CDFBFE
:10D86000FFF7B0FA07E0A288E06880188A0821690B
:10D87000FDF7C3FB6088F06170BD00005C260020EE
:10D880009C20002010B505480079000703D4012032
:10D8900000F012F810BD00F003F810BD9C2000202D
:10D8A00010B504480822416891434160407800F077
:10D8B00003F810BD9C2000200249487002498000F6
:10D8C000085800479C20002024E0010010B50446C1
:10D8D000FFF7A2FB2046FCF799FB10BD0020704724
:10D8E00010B5002320220549FFF79CFA002803D039
:10D8F00000221146FBF752FF10BD00001C20002043
:10D900001CB504466A4600210F48FFF7CBF90028F2
:10D9100003D000221146FBF741FF20216846FFF7A4
:10D92000EDF9002803D000221146FBF737FF002352
:10D93000202221466846FFF727FB002803D000225B
:10D940001146FBF72BFF1CBD1C20002010B505481D
:10D950000079000702D4FCF799FF10BDFFF7A0FF84
:10D9600010BD00009C20002038B5094CE0790A2841
:10D970000AD1052000900123642232210548FBF7DB
:10D9800015FB0649044808600020E07138BD00001E
:10D9900078240020602400205A5A5A5A003F002060
:10D9A00038B5094CE0790A280AD1052000900123F6
:10D9B000642232210548FBF7F9FA06490448086059
:10D9C0000020E07138BD0000842400206024002085
:10D9D0005A5A5A5A003F0020FEB51F4C00252769AD
:10D9E000E06802906846FDF793FA0190FDF7E2FCCB
:10D9F00006460198002822D000230098E16817E02D
:10DA00000E680A46864202D9301A086012E0801B6E
:10DA1000F31800261660D668D169B446002E07D0E8
:10DA2000FE183602360A566066469660D56115467F
:10DA30000029E5D12846E160FDF71AFD06E02846F9
:10DA4000FDF716FD002801D1002E02D00298FCF748
:10DA50009FFF00202071FEBDC4200020012002494C
:10DA6000000508607047000000E200E010B50E4BB2
:10DA7000D968002906D002680C68A24204D8A21A0C
:10DA80000A60C161D86010BD0B4604E00B46C9694D
:10DA9000121B002904D00C689442F7D3A41A0C601E
:10DAA0000260C161D86110BDC420002010B5FBF731
:10DAB0005DFB10BDF8B51E4DEC68002C36D01D483E
:10DAC000002740682969401A0602360A2068B042D9
:10DAD0001AD8361AC7192246107CE469002811D0DA
