:020000040003F7
:10C00000E02F002069EF030083EF030085EF0300BA
:10C010000000000000000000000000000000000020
:10C02000000000000000000000000000D5C0030078
:10C03000000000000000000089EF03008BEF030008
:10C040008DEF03008DEF03008DEF03008DEF0300F4
:10C050008DEF0300000000008DEF03008DEF030063
:10C060008DEF03008DEF03008DEF03008DEF0300D4
:10C070008DEF03008DEF03008DEF03008DEF0300C4
:10C080008DEF0300DDD603008DEF03008DEF03007D
:10C09000F9D603008DEF030019EF03008DEF0300C5
:10C0A0008DEF03008DEF0300000000000000000092
:10C0B0000000000000000000000000000000000080
:10C0C0000348854603F00AF8004800479DC2030074
:10C0D000E02F00200648704502D1EFF3098101E00E
:10C0E000EFF30881886902380078024A104700009F
:10C0F000FDFFFFFF6DC10300401E00BF00BF00BF7A
:10C1000000BF00BF00BF00BF00BF00BF00BF00BF37
:10C1100000BFF1D170470000401E00BF00BF00BF4C
:10C1200000BF00BF00BF00BF00BF00BF00BF00BF17
:10C1300000BFF1D170470000056885F308884068AA
:10C14000FF2464B2EFF30585002D01D1A646004718
:10C150002546064621273FBAF0B4002400250026D4
:10C160000027F0B4F92040B20047000010B50C469B
:10C17000002802D00120086010BD2168002911D0DC
:10C180001E48421A814212D03C2A0DD201223C3074
:10C190003C310B7803701346521C401E491E3C2B49
:10C1A000F7D904E00E200BE03C2202F05BFF0022F6
:10C1B0003C21124801F06CFE1049891E08800020C5
:10C1C000206010BD70B505000BD000223C210B484B
:10C1D00001F05EFE094CA41E2188884203D00B208A
:10C1E00070BD0E2070BD3C220449284602F03AFF83
:10C1F0002088401C2080002070BD0000023E0020EE
:10C200000A4610B50146854801F0A2F810BD8549DF
:10C2100083480860704710B500F0ECFF10BD10B502
:10C22000814C86B01ECC03946C460EC4002807D007
:10C23000684618DF002803D00022114601F088F874
:10C240000F20800313DF002803D00022114601F0E5
:10C250007FF8764B482276490D2002F039FE0028FF
:10C2600003D00022114601F073F8002004900590DD
:10C2700001206946087404A860DF002803D000226A
:10C28000114601F065F86B4802F03EFE002803D02D
:10C290000022114601F05CF806B010BD6648C16985
:10C2A000B12974D000240E2000F0A4F8182000F06A
:10C2B000A1F8172000F09EF80C2000F09BF8162043
:10C2C00000F098F80D2000F095F8192000F092F891
:10C2D0000B2000F08FF859480F21406989038842EC
:10C2E00004D000221146104601F032F80120000768
:10C2F000006901218902884204D0002211461046BB
:10C3000001F026F84E4B4F4A0521002001F0F8F9C4
:10C31000002803D00022114601F01AF842484A4A88
:10C320000121001F01F02CFA002803D00022114641
:10C3300001F00EF83C480121001F0022C9030068EB
:10C3400001F057FA002803D00022114601F000F84E
:10C3500001F0D8FC01F01CFD012500281BD001F0E4
:10C3600026FD002803D00022114600F0F1FF2046F0
:10C370006840FFF754FF00F043F801F03EFD00284D
:10C380000FD00022114600F0E3FF0AE0FFE701248E
:10C390000021C16187E76C402046FFF740FF00F0B5
:10C3A0002FF82A482A49006803242403884204D02D
:10C3B000A06801F0FEFB002807D101F0B5FC0028C1
:10C3C00003D00022114600F0C3FFA06801F0F1FB8A
:10C3D000002806D001F0DCFC002802D1A06801F0A2
:10C3E000AFFCBFF34F8F1C491A48C860BFF34F8F93
:10C3F00000BFFDE7194A03218000801801607047E3
:10C400000B4A10B548321421082000F0AFFF002875
:10C4100003D00022114600F09BFF10BDEFBEADDE41
:10C420003546526E000601403CF1030057EF030011
:10C43000B422002017C203000005004000100010C5
:10C440003FDB0300EC2000200FC20300FC3F002074
:10C450005A5A5A5A0400FA0500ED00E0000700504D
:10C46000FFB583B0074600200C9C8646268805460B
:10C470003AE07868A900421811886846818051889E
:10C48000C1800022694601A865DF002839D16846CD
:10C4900001780598814226D17046002801D00022FB
:10C4A00000E002222088891842180D998A4227D874
:10C4B000714600290AD1401C80B22080069A049956
:10C4C00011542088401C208001208646218806982F
:10C4D0000A18694601A865DF002812D1694620883C
:10C4E0000978401820806D1C3888A842C1DC70464D
:10C4F00000280AD02088801B401E80B2FF2802D965
:10C500000C2007B0F0BD069988550020F9E7FFB56B
:10C5100083B016460C9D0D9C1F4602220095019487
:10C520000398FFF79DFF0028EBD13B4610223146D0
:10C53000009501940398FFF793FFE2E7F7B584B005
:10C540000025168807461580406B1446002813D036
:10C5500003780598032E51D30221017021881122FE
:10C56000491C89B2218042542188491C89B221800A
:10C5700043542088401C2080386B00281DD005467D
:10C580002088059902461232B24237D811220A5445
:10C5900020881022401C80B220800A542088401C31
:10C5A00020800F202A5C2388401ECA54228840B273
:10C5B000521C22800028F5DA0025384620300290EF
:10C5C000807B002806D033462246059900F0F9F812
:10C5D000050096D10298407B002806D032462146BD
:10C5E000059800F018F905008BD1B878002822D002
:10C5F000059886462088001DB04201D90C2080E7AE
:10C60000684679DF0028FAD1218803207246505409
:10C6100020881921401C80B2208011542088714646
:10C62000401C80B2208041186846008800F0C4F8A1
:10C63000218840182080F878002817D0218803230B
:10C640000A46FB56C91C0598B142D7D8022181542D
:10C6500021880122491C89B2218042542188491C29
:10C6600089B2218043542088401C208078680028AB
:10C6700017D021880023C3560A46C91C0598B14229
:10C68000BCD80221815421880A22491C89B2218008
:10C6900042542188491C89B2218043542088401C7F
:10C6A0002080388900280AD0009438460196062256
:10C6B00002210830059BFFF72AFF05009FD1388A29
:10C6C00000280AD000943846019607220321103032
:10C6D000059BFFF71CFF050091D1388B00280AD07D
:10C6E000009438460196152214211830059BFFF757
:10C6F0000EFF050087D1386A002806D0334622464F
:10C70000059900F006F90500D8D1786A002806D00E
:10C7100033462246059900F03DF90500CED1029836
:10C72000007B002807D0334622463846059900F0A2
:10C7300065F90500C2D13878002807D03346224673
:10C740003846059900F096F80500B7D12846D8E696
:10C75000F0B50C4693B01F216A46118007260027CA
:10C760009180002809D0C17849070DD502A9FFF7AB
:10C77000E5FE002809D102AD01E000251780002C5C
:10C780000ED0E078002802D0304613B0F0BD01AAE8
:10C790000AA92046FFF7D2FE0028F6D10AAA02E035
:10C7A00068460022878068468088C3B26846008851
:10C7B000C1B2284672DFE8E70870000A487002201C
:10C7C000704730B51588EC1C9C4201D90C2030BD57
:10C7D00002244C5513881C255B1C9BB21380CD543E
:10C7E00013885B1C9BB21380012807D0022807D056
:10C7F000032807D0042807D0072030BD002004E01C
:10C80000012002E0CC5401E00320C8541088401CF1
:10C810001080002030BD7CB5054608880C460930E4
:10C82000904201D90C207CBD684671DF0028FAD106
:10C8300021880820685420881B21401C80B2208059
:10C840002954208800A9401C80B22080401906226B
:10C85000013102F007FC20886946801D80B22080EB
:10C860000978002900D0012129542088401C20800B
:10C8700000207CBDF8B50F46017814460546012915
:10C8800002D16878002806D02088821C9A422DD8D0
:10C89000012902D006E00720F8BD69784118891CFB
:10C8A000994223D8181A801E86B2684606802188CD
:10C8B000B81C081869467DDF0028EDD128780228C9
:10C8C00005D169460988B14201D809210AE0082149
:10C8D000012805D16878B04202D86A46108001E08C
:10C8E0006846068068460088FE2801D90C20F8BDFD
:10C8F0002288401CB8542088401C80B220803954C3
:10C9000020886946401C208009884018208000202B
:10C91000F8BDF8B50646108814468446801D0D46BD
:10C92000984201D90C20F8BD32880720062AFAD394
:10C930001927FF01554BBA4201D99A42F3D17188A8
:10C940000629F0D3B94201D99942ECD19A4203D0D9
:10C95000994201D08A42E6D80521604629542088B0
:10C960001221401C80B2208029542088401C80B2B3
:10C97000208041193088FFF71FFF2188401880B2BE
:10C98000208041197088FFF717FF21884018208008
:10C990000020F8BD70B5144682880E4605462088F2
:10C9A000111D4118921C994201D8FE2A01D90C2070
:10C9B00070BD521C32542088FF21401C80B2208060
:10C9C00031542088401C80B2208081192888FFF7CC
:10C9D000F3FE2188401880B22080AA88002A09D05E
:10C9E000A968002908D0801902F03CFB2088A9889A
:10C9F00040182080002070BD072070BDFFB507469D
:10CA0000806A81B0144600283DD000253846203089
:10CA1000009033E00C20B96A68430E18B088801C7F
:10CA2000FE2802D90C2005B0F0BD22880299401CD6
:10CA3000885420881622401C80B2208002990A5413
:10CA40002088401C80B22080029941183088FFF76E
:10CA5000B3FE2188401880B22080B288002A0AD014
:10CA6000B16800290FD0029BC01802F0FBFA2088A1
:10CA7000B188401820806D1C0098EDB2007BA84260
:10CA8000C8D80020CFE70720CDE70000FFFF000057
:10CA900038B56749674A488890420FD04A78664C53
:10CAA000521CD2B24A70237B934208D3091D75DF12
:10CAB000002803D0A169002900D0884738BD00258F
:10CAC0004D70217C002907D03B2176DF002803D060
:10CAD000A169002900D0884761690029EED0684625
:10CAE0000570884738BD70B5054601461C2252487E
:10CAF00002F0B8FA4E4C002626702968002906D0AC
:10CB00000822201D02F0AEFA201D7ADF02E048481C
:10CB1000001D7BDF002807D1401E60806670474AF9
:10CB20000021474800F02CFE70BD10B54448006855
:10CB300000F098FE10BDF8B53D480C3000F06BF8E1
:10CB400000263B4D3C4C002807D0616900291CD0D1
:10CB500001206A461070684616E02878002805D043
:10CB60006169002911D0684606700DE068780028D8
:10CB70000DD0A16832480022006800F03AFE00287B
:10CB800003D0A169002900D088472E70F8BD6168E4
:10CB9000F0E7F8B5284C02880027254DE689102AD1
:10CBA00017D02749112A21D0122A2DD0502A0FD16F
:10CBB000C288801DB2420BD1028B022A08D1C27EEC
:10CBC000837E10021843C007C00F13D0FFF7B3FFD6
:10CBD000F8BD8188698001461548082216310C305D
:10CBE00002F040FA6F70002EF0D0F8BD0020C04374
:10CBF00068806F70086800F035FE0028F5D0A169E4
:10CC00000029F2D08847F8BD811D094808220C3060
:10CC100002F028FADAE741880548001D02889142AF
:10CC200004D34088814201D801207047002070471A
:10CC300000200020FFFF00006C24002091CA0300A8
:10CC40004CF1030030B585B0002822D00388FE4C9B
:10CC5000A34220D0FD4B1B78002B1CD0FB4B102592
:10CC60005B1C1D705970002401259A7003226946CF
:10CC70000A820094019402940394028A0A808D70BF
:10CC80008C8004A90291039300886946A6DF05B051
:10CC900030BD0E20FBE70820F9E7F0B58BB0044665
:10CCA000022768460773002609968784C68408A869
:10CCB0000A900D46A18A208809AAA5DF002804D081
:10CCC000E16A00291AD0884718E06846008CC0073E
:10CCD000C00F13D068460682208803A9A8DF002869
:10CCE00013D1A97E28461B3001220B0002F008FA5E
:10CCF00009460F1C2227292C442E4600FF20FE3017
:10CD000069460882208803A9A8DF0BB0F0BD6B46F6
:10CD10001E700BE006221EE069460A72019027E0B1
:10CD2000204690470020F0E76B461A702B8B022BB1
:10CD3000F2D2EFE7684607706946A26AF0E703207F
:10CD400000E00420694612E00520FBE7298B032957
:10CD500005D2032208212046FFF774FFD5E741786A
:10CD60000278080210436946888003D006200870C4
:10CD7000A26AD5E70720FAE70920E3E70322EAE7FA
:10CD800030B585B00D46040038D0002D36D0686827
:10CD9000002833D00020C043AD4B20800FCB04933C
:10CDA00001AB07C3AB486946088001A8811E63DF59
:10CDB000002822D1221D69460120A0DF00281CD1B5
:10CDC00068468078A071204600F0CEF8002814D183
:10CDD000204600F059F900280FD12946204600F0DE
:10CDE00004F9002809D16868A062A868002800D06A
:10CDF000E062964901200870002048E70E2046E7CF
:10CE00003EB5002828D0002926D0826A002A23D0E7
:10CE10000A88102A21D0112A30D0502A1FD0512A36
:10CE20001AD10A460446891D0878022814D1488878
:10CE3000238A984210D1907A04280DD006280BD06E
:10CE4000052809D02046891CFFF727FF002803D0BA
:10CE5000E16A002900D088473EBD898810E0CB8870
:10CE600002899342F8D108226B461A708A7F1A729F
:10CE700020310191826A694690473EBD0021C94335
:10CE800001803EBDF0B585B00A4605002DD028884A
:10CE90006D4988422BD06D480078002827D06B4C14
:10CEA0001020641C2070072060700127A7700321E8
:10CEB000684601820026E11C104600F04CF801464D
:10CEC0006846008A09186846018200960196029613
:10CED0000396298A01808770868004A803940290B3
:10CEE00028886946A6DF05B0F0BD0E20FBE70820C4
:10CEF000F9E7F0B585B00A46050028D028885249E0
:10CF0000884226D051480078002822D04F4C11206A
:10CF1000641C20700127684607820026611C1046A9
:10CF200000F019F801466846008A0918684601822F
:10CF30000096019602960396298A01808770868062
:10CF400004A80394029028886946A6DFCBE70E2048
:10CF5000C9E70820C7E70870020A4A70020C8A7005
:10CF6000000EC8700420704730B58FB005461C21F4
:10CF7000684602F090F8694608780421084369463B
:10CF80000870002401940394049405940694A879ED
:10CF900008A988702F486946801C0884601C000717
:10CFA0000794000F0C77103048778A7FF9200240F1
:10CFB000F720921C0240EF200240012002438A77B2
:10CFC000142109A802F067F808A8099007A80A9098
:10CFD00069468C851420CC8508860D942B46A8883C
:10CFE000083309AAA2DF0FB030BDF0B58FB00F46ED
:10CFF00005461C21684602F04EF868460178022674
:10D000003143017000240194039404940594069420
:10D01000A97908A881700F496846091D0184601C20
:10D020000107090F68461031079401770020014677
:10D0300068464177817FF9200140F720891C014033
:10D04000EF200140012007E0FFFF00001420002036
:10D0500050F1030030150000014368468177142128
:10D0600009A802F018F808A8099007A80A906846CD
:10D070008685C48506860D972B46A888203309AA85
:10D080006946A2DF0FB0F0BD30B58FB005461C2158
:10D09000684602F000F86946087808210843102223
:10D0A0001043694608700024019403940494059485
:10D0B0000694A87908A98870144869460884601CF9
:10D0C00000070794000F0C7710304877887FF9210C
:10D0D0000840F721801C084010430121084369469D
:10D0E0008877142109A801F0D6FF08A8099007A89D
:10D0F0000A9069468C851720CC8508860D942B46AE
:10D10000A888103309AAA2DF6DE7000031150000DE
:10D1100031B5054C04E0401E00902046FEF7ECFFC0
:10D1200000980028F7D138BDE703000018225043CB
:10D13000854A00218018017181604161022281616C
:10D140000261C160704770B57F4C182221780F20B2
:10D1500051430A197D4916795369121D4D68012EF4
:10D160000FD0032E0CD101200007006981B21846B0
:10D1700001F062FF401928DF002801D10121A170D0
:10D1800070BDA802556851692D1A091892681818BF
:10D19000101801229202954202D2AA0829DFEBE779
:10D1A000FF22013229DFE7E7F8B5674C069E657874
:10D1B0000A2D1DD027787D19EDB20A2D01D30A3D25
:10D1C000EDB218277D432D192871AA6103C9EE60BD
:10D1D000AB6069612861A1780020002904D1FFF7C4
:10D1E000B2FF112800D100206178491C6170F8BDA0
:10D1F0000420F8BDF8B5544C0022A17801293ED195
:10D200000023A37006462146087818270546784370
:10D210004118022E03D0032E31D10D202CE04B48B3
:10D220004668761C46608968B6028E4214D3436015
:10D230006078401E6070681CC0B220700A2801D35C
:10D240000A3820701820684301191046091D00F0A3
:10D250006BF82846FFF76AFF607800280FD0A078A7
:10D2600000280CD1FFF76FFF002808D0112806D046
:10D270002178182251430919091D00F055F8F8BD0D
:10D2800070B50024314E304874600470447084706E
:10D2900025462846FFF74AFF6D1C0A2DF9D32B4976
:10D2A00034600020083174608200401C8C500228D9
:10D2B000FAD3002070BD10B5244B1A68022A09D099
:10D2C0000A601C469100083400686050521C00201F
:10D2D0001A6010BD042010BDF8B507461D4616465D
:10D2E0000C46084600F01AF800280CD0601900F02F
:10D2F00015F8002807D0334622463946012000950C
:10D30000FFF752FFF8BD1020F8BD08B50B4600220C
:10D31000014603200092FFF747FF08BD800701D0B8
:10D32000002070470120704738B50C46E268074B73
:10D33000920008339D5809786268009202462046A0
:10D340000C306369A84738BD882400201C200020C9
:10D35000BFF34F8F04490348C860BFF34F8F00BF2E
:10D36000FDE700000400FA0500ED00E030B5CB0059
:10D3700008339DB293070024002B01D0072030BD55
:10D38000574B9A605219DA605C701C705880998013
:10D39000002030BDF7B5524C82B060880F46814204
:10D3A0006ED80020694608704F494E4E4868C00547
:10D3B000C00D18D0103840B2002807DA0207120F4B
:10D3C000083A920892005118C96904E08108474A56
:10D3D0008900891809688007C00EC1400806850FBA
:10D3E000012D01D10AE00425684636DF02280CD061
:10D3F000002803D000221146FFF7AAFF22786078A8
:10D40000A188884203DA401C02E072B6F6E70020E9
:10D41000C0B2904207D066786078884201DA401C3A
:10D4200000E000206070012D0BD062B668460078E5
:10D4300037DF022805D0002803D000221146FFF76D
:10D4400087FF2848864219D0A068F5000499415109
:10D45000029900290CD0002F0AD060883A46464332
:10D46000E068301801F0FEFDA0682818878002E00F
:10D47000002128188180002005B0F0BD0420FBE7C2
:10D480000920F9E70EB504E068468188029A009801
:10D49000904702AA01A9684600F003F80028F3D0DB
:10D4A0000EBD70B50E4B05241D785E78AE4215D0CA
:10D4B0001D781C789E88B44201DA641C00E00024C8
:10D4C0001C705C88DE686C43A41904609B68E800EB
:10D4D000C418A4880C80185800241060204670BD21
:10D4E0002C200020FFFF000000ED00E000E400E041
:10D4F0008307FF22DB0E9A408907090E9940002816
:10D500000BDA0007000F08388308F9489B00181849
:10D51000C36993430B43C36170478308F5489B007D
:10D520001B181868904308431860704770B50124B1
:10D53000F14960040860F14940108860EF494039C2
:10D540008860EF4D6C602F20FEF7E6FDAC60ED4D7E
:10D5500000242F202C61FEF7DFFDEC7070BDF8B5C4
:10D56000E849C8680A690C780F7989688646944644
:10D5700000913EE00099E20055182A7836E0182321
:10D5800053436968521CC918AB78D2B2934200D198
:10D5900000220B78022B02D0032B27D123E04E6808
:10D5A0000346014603E0B14204D00B46C969002995
:10D5B0001CD0F8E7002919D08B4208D1C069002897
:10D5C00005D1CF4F0126BE600026B44601270E6864
:10D5D000C969D961002909D00B689B190B6005E066
:10D5E0000174C06900E000210028F9D169789142F6
:10D5F000C5D12146641EE4B20029BBD1C1496246AF
:10D600000A61C8600F71704501D00120F8BD00208B
:10D61000F8BDF8B50446BB480026C16800910778FC
:10D620004EE0B848F90080680D1843E0002C02D0A5
:10D630002046E4691FE02878182141436A68401CAD
:10D64000C0B251182870AA78904200D12E700A7882
:10D650004868012A30D1027C002A2DD18A684260B4
:10D66000CA6882600A69C26049698161A54909790D
:10D67000002900D04660A34943680A699C46991A6C
:10D680000902A14B090A994202D28268891807E06F
:10D690006146511A09028268090A8A4202D9511A5E
:10D6A000016000E006604660012186600174C66189
:10D6B00000F0FFF8002CB9D1287869788842BAD1F7
:10D6C00038467F1EFFB20028ABD18E48C168009853
:10D6D000814201D00120F8BD0020F8BD10B58B4972
:10D6E0000020086048608860C86088494039086048
:10D6F000486000F016F910BD10B500F04FF910BDEC
:10D70000FFB59007002581B014460E46002833D19E
:10D710007C4F002C32D0FFF709FF0498786103207A
:10D72000387033461821224600204B43BC60183421
:10D73000C10089180D704D708E704C601C19401C12
:10D740000328F5DBFD607D7001247148BD70240560
:10D75000046003211420FFF7CBFE67488038046083
:10D760006C4C0198A06003211120FFF7C1FE606896
:10D770003861002005B0F0BD0720FBE7BD60FBE786
:10D78000604B9B68002B07D0002A07D0002805D0EB
:10D790000068037C002B03D00820704707207047E7
:10D7A000417442610020704751494868C005C00D6E
:10D7B00019D0103840B2002807DA0207120F083AD1
:10D7C000920892005118C96904E08108494A890009
:10D7D000891809688007C00EC1400806800F01281B
:10D7E00003D0032803D00220704700207047012097
:10D7F0007047FEB50D46434917468968044600291F
:10D800002AD0002C28D0052D01D20720FEBD60694A
:10D81000002821D0607C012820D00026FFF7C4FF1B
:10D82000C0003849019089684018694600F0F6F850
:10D83000002815D00121017036494460496808303C
:10D84000E2C03049019889684118684600784870FC
:10D8500000F062F80020FEBD0820FEBD2E46DDE788
:10D860000420FEBDF8B5274D0446A96800291CD048
:10D87000002C1AD06069002817D000262674FFF704
:10D8800093FFC700A8686946381800F0C7F8002859
:10D890000DD0022101704460A868391868460078EC
:10D8A000487000F039F83046F8BD0820F8BD042073
:10D8B000F8BD10B5134BD968002906D002680C6872
:10D8C000A24204D8A21A0A60C161D86010BD0B46FA
:10D8D00004E00B46C969121B002904D00C6894426D
:10D8E000F7D3A41A0C600260C161D86110BD0000BA
:10D8F00000ED00E000E400E080E100E040130140C2
:10D90000001001403C200020FFFF7F00401101403B
:10D9100080E200E00015014001207C49000508601C
:10D920007047F8B57A4DEC68002C36D0794800275E
:10D9300040682969401A0602360A2068B0421AD89F
:10D94000361AC7192246107CE469002811D000203D
:10D9500010746B69002B09D09169506998470028B1
:10D9600007D000221146FFF7F3FC02E051699069ED
:10D970008847002CE1D16978A878814206D1401C03
:10D98000C0B2A870022801D10020A870604900062A
:10D99000800D18310F50FFF7BFFFF8BDFEB55C4C8E
:10D9A00000252769E0680290684600F04AF8019077
:10D9B000FFF7D5FD06460198002822D000230098E5
:10D9C000E16817E00E680A46864202D9301A0860FC
:10D9D00012E0801BF31800261660D668D169B446A1
:10D9E000002E07D0FE183602360A5660664696604C
:10D9F000D56115460029E5D12846E160FFF709FE0B
:10DA000006E02846FFF705FE002801D1002E02D0CF
:10DA1000029800F033F800202071FEBD4278837830
:10DA2000521CD2B2934200D100220378934201D11A
:10DA3000002070470A704168407818225043081847
:10DA4000704710B5324900234A788C78A24212D030
:10DA5000521CD2B24A70022A00D14B704A782C4B29
:10DA6000920018339A580260086910180002000AE0
:10DA7000086101203AE70360002037E7F8B5244841
:10DA8000C16800293ED00E6822494C680769C078F9
:10DA9000E11B0D022D0AED1C002815D101201E4AA4
:10DAA000000450601C4A403A5060184940008031E0
:10DAB00008601A4908601A49012008602F20FEF703
:10DAC0002BFB13490120C870B54200D23546E81936
:10DAD0000002104B000A403318600E4A5168001BC8
:10DAE000091B0902090A0002000AC91C814208D95F
:10DAF000506818602F20FEF70FFB012003494004F7
:10DB00000860F8BDFFF712FDF8BD000000E200E07C
:10DB10003C200020001501404013014000E100E0DE
:10DB20000010014010B50446082904D00022114617
:10DB30001046FFF70DFC21686068884710BD1CB5D2
:10DB400001910090024A08216846FFF723FC1CBDA2
:10DB500025DB030010B5C4480378012B03D101294C
:10DB600001D102210170100003D000221146FFF7FD
:10DB7000EFFB10BD10B5BC4C48DF002803D00022DD
:10DB80001146FFF7E5FB162000F061F90D2000F0CB
:10DB90005EF9192000F05BF90B2000F058F9FFF74F
:10DBA00071FC2078022803D0032801D00428E3D197
:10DBB00010BD38B50068401C19D00024684600F03C
:10DBC0005DF900980178012910D1418800290AD017
:10DBD0008168032000038068002200F059F9009951
:10DBE0004988814201D1012400E00024204638BD4B
:10DBF00010B504469C481C21001DFFF786FB002839
:10DC000003D000221146FFF7A3FB974800231C22F4
:10DC10002146001DFFF760FB002803D000221146BB
:10DC2000FFF796FB10BD0FB4F8B5684600F026F973
:10DC30006846027E418B01238B4CFF258B48002ACE
:10DC400012D0012A16D0032A2AD00021022A36D067
:10DC5000052A46D0042A4ED0062A01D1042020707D
:10DC6000F8BC08BC04B01847418009998160037072
:10DC7000057110E04180089A07998918099A891856
:10DC80008160A521017005710799C1600899426101
:10DC900001610A99816123707448FFF7A9FFDFE7EA
:10DCA00000990A7802704A88428089688160AA21B6
:10DCB00001710799C1600899016109990BE0009A07
:10DCC0001678A52E09D00670568846809268826024
:10DCD0000571C16001614161DDE7418081600570CE
:10DCE000F6E700F0FFF9002803D000221146FFF705
:10DCF0002FFB0320B3E7418081600570009909790B
:10DD00000171C9E70EB55A4A6B4607CA07C3FFF748
:10DD1000B7FA002807D15449FF208002091D486046
:10DD20006846FFF7C8FA0EBD10B500F072FE002875
:10DD300005D100F0A6FB0446FFF71CFF204610BDEE
:10DD400070B511DF002803D000221146FFF700FB59
:10DD5000484900200A68474B012180330C46844023
:10DD6000144204D0C506ED0E0C46AC401C60401CAD
:10DD70002028F3D303242403A06813DF002803D052
:10DD800000221146FFF7E4FAA06800F07DF870BDAC
:10DD900008B5684600F072F800980178A52904D00B
:10DDA0000079AA2801D0002008BD012008BD10B5C7
:10DDB00001F008F8002803D100F0E6FF00281BD08E
:10DDC0006420FFF7A5F900F089FF002803D00022A6
:10DDD0001146FFF7BDFA00F0F5FF002803D000223E
:10DDE0001146FFF7B5FA00F0B3FF041E03D000227E
:10DDF0001146FFF7ADFA204610BD00B51C4987B0AB
:10DE000014220C3101A801F02DF90598009001A809
:10DE10000FC8FFF708FFFFF7ADFE002007B000BDF9
:10DE200038B50446684600F029F80098017821705A
:10DE3000418861808168A16001792171C168E160D8
:10DE400001692161416961618069A06138BD0A4A47
:10DE5000012153688140C340D807C00F01D0D16071
:10DE600070479160704700005C2000207C250020F6
:10DE700060F1030000E100E000050050014901608D
:10DE80007047000000FC030010B5FEF755F910BD07
:10DE900010B50446002A02D01088002210E00A487B
:10DEA000FBE7030A00020343A05C584003061B0F74
:10DEB00043401803584083B21806C00C5840521C07
:10DEC0008A42EED310BD0000FFFF000070B50025B0
:10DED0000C290ED304464318008941000919581A29
:10DEE0000A38C2B21E48022A027002D30A318B429B
:10DEF00001D2092070BD1B4801F0B4F81A481B4933
:10DF000002888A4202D02388934218D140888842EE
:10DF100002D06188814212D1144A0323521E208903
:10DF20001B03A8420BD9690009194989914204D001
:10DF30009E896D1CB6B2B142F3D1002070BD0B209A
:10DF400070BD10B50022FFF7A3FF064A5178127882
:10DF500009021143884201D00B2010BD002010BDE2
:10DF6000682000209825002080100010FFFF00008E
:10DF700008280CD004DC002807D006280FD108E0C0
:10DF80000B280AD00C280AD105E001207047022096
:10DF900070470320704704207047042901D00620F1
:10DFA00070470520704770B515460A46032823D0F0
:10DFB000042820D1FE4C002906D0E088FD49884283
:10DFC00019D0132176DF10E0284600F0EFFB00287F
:10DFD00003D000221146FFF7BBF9A069A8420AD17D
:10DFE00001220321F448FEF72DFE002803D0002271
:10DFF0001146FFF7ADF970BD01211046FFF7B8FFDC
:10E0000002460121EEE7F0B50546087A0E4685B0D6
:10E0100081070CD0032211462846FEF713FE002884
:10E0200003D000221146FFF793F905B0F0BDE04997
:10E030000090143100F093FB010011D1DC4C7168A9
:10E04000009A606901F00EF8009800F0E2FB010010
:10E0500006D120466946143000F0E7FB010003D0EA
:10E06000284600F0CAFAE0E70420019000988008F2
:10E0700002906069039001A800F04CFD07000BD0EE
:10E08000092F10D0606900F091FB010002D02846F2
:10E0900000F0B3FA3946E3E7307A2169401820618D
:10E0A0006069A061C1E7307A216941182161607817
:10E0B0000028BAD06089401E0004000C6081B4D1F1
:10E0C0002846FEF716FF002803D000221146FFF76E
:10E0D0003FF920896081A8E710B500221146FFF7BB
:10E0E00037F910BD10B5B24C01202070E088B1495D
:10E0F000884208D0132176DF002810D00022114674
:10E10000FFF726F90BE0A078002808D074DF00287C
:10E1100003D000221146FFF71BF90020A070FEF784
:10E1200004FD002803D000221146FFF711F900205A
:10E1300010BD70B50D78044601209D4A2B0000F0FB
:10E14000DFFF0A2B3043061320575C46601200F0B5
:10E1500055FD0421FFF70CFF024604212EE00022AA
:10E160001146FFF7F5F870BDFFF7BCFF002803D09C
:10E1700000221146FFF7ECF800F05BFD002808D103
:10E1800070BDFFF7AFFF002803D000221146FFF754
:10E19000DFF800F075FD70BD1071486800785071AF
:10E1A00070BD02201071486800780128F8D100F095
:10E1B000E5FC0221FFF7DCFE024602212046FEF7C5
:10E1C00041FD0028CBD170BD0320107170BD1279C4
:10E1D0002046012A06D0022A07D0032AF6D1FFF7EB
:10E1E00012FF70BD00F01CFA70BD00F056FA70BD51
:10E1F000507088881081508170BD0020507010814F
:10E2000070BD20461169FEF73DFEDAE710B5044601
:10E21000694890B0817968468170684901803821E9
:10E2200001A800F038FF02216846017100218171C8
:10E23000C471012181810490002101A8FEF788FAB0
:10E24000002803D000221146FFF782F810B010BD5D
:10E25000F0B5574C8BB0A07800283AD15648182119
:10E26000183800F018FF2046534CC078183C0025A1
:10E270000126002837D0274648370095019502959A
:10E2800010226946F81D039500F010FF002822D0E7
:10E29000F81D089009976846067509A80490684615
:10E2A000067708A806900420FFF7B0FF257002202B
:10E2B000207204A8E060282020823F486582183838
:10E2C00073DF002803D000221146FFF741F83848D9
:10E2D00086700BB0F0BD0520FFF798FF26706760D1
:10E2E00025722582E9E70620FFF790FF257065601B
:10E2F0002572E0E770B52E4C01880022E588A6B0B3
:10E3000017290AD01EDC11293FD008DC022977D05A
:10E31000102902D18088E080A27026B070BD264C02
:10E32000303426461836132951D01429F5D1C28924
:10E33000638D00219A4200D1314600238088E21D7E
:10E3400082DF1BE051296CD00EDC18297ED0192900
:10E35000E3D180790028E0D1A270E068401EE0603F
:10E360004FD0FFF775FFD8E7522974D05529D4D183
:10E3700080790028D1D11321284676DF0028CCD01F
:10E3800000221146FEF7E4FFC7E780206946888235
:10E390003220E060012305AA06A92846AADF00284A
:10E3A00003D000221146FEF7D3FF2078002807E0B3
:10E3B0006C200020FFFF0000BC250020301500006D
:10E3C00001D1FFF745FF0020C043E080A5E7072209
:10E3D000CE490FA800F046FE1022E11D0BA800F068
:10E3E00041FE1C22314611A800F03CFE0BA809900A
:10E3F00011A8089005ABC64A852128467FDFBDE7F6
:10E400000BE01422C34905A800F02CFE099805ACC6
:10E4100000900FCCFFF707FC7FE70021284667DF5D
:10E42000ACE7817900299ED0807A042803D00628A1
:10E4300001D0052897D102290BD001206946087127
:10E44000FF208330088101A9284600E003E0A8DF0F
:10E4500094E70220F2E700F0A3F88FE710B5044636
:10E46000FEF797FBA94821463038FEF7C9FC204645
:10E47000FFF740FF10BD10B500221146FEF768FF00
:10E4800010BD30B5A24D87B000241C3D2C702C71FE
:10E49000A14800F031FD00287CD1A04800F0EFFA3F
:10E4A00000F04EF9002875D19848FDF78BFE002842
:10E4B00073D0684671DF002803D000221146FEF7B2
:10E4C00047FF69464878401C4870002070DF0028EC
:10E4D00003D000221146FEF73BFF11206946087267
:10E4E00007228FA102A87CDF002803D0002211465A
:10E4F000FEF72EFF00940C2168460194018018213C
:10E500004180FF2184809131C1807ADF002803D0CF
:10E5100000221146FEF71CFF08206946009408807F
:10E52000814801908148029078483038FEF728FCF5
:10E53000002803D000221146FEF70AFF1C2168467E
:10E5400000F0A9FD7A480190012080030290009418
:10E55000032168460173C4810474764806900594CB
:10E560006846FEF7C0FA002803D000221146FEF7E5
:10E57000EFFE6749E1220878400840001040DF22A2
:10E580000C30104008700720487010208870FFF78A
:10E590005FFE002007B030BDFFE70120E8709CE778
:10E5A00070B55B4C644D1C3CE088A84201D108204A
:10E5B00070BDE17800291BD0544901230822343171
:10E5C000A9DF0028F4D1022300221146E088A9DF48
:10E5D0000028EDD12A460C21E088A7DF5749884260
:10E5E00004D0082802D0891C8842E1D1002070BDE7
:10E5F00000231A461946A9DF70BD10B50A46044625
:10E6000003211046FFF7B4FC024603212046FEF723
:10E6100019FB002803D000221146FEF799FE10BD19
:10E6200030B5054687B0002000900190029003901D
:10E6300037486A461C3840791070364A0C3A1068E0
:10E6400092680490684606920590087A0C2806D0D5
:10E6500003221BE000221146FEF77AFE9AE74C687F
:10E66000204600F049F80190201D00F045F8029086
:10E670002046083000F040F8039004A800F002FAA9
:10E68000002887D00121FFF773FC024601212846AC
:10E69000FEF7D8FA0028DDD17CE7FEB50446087AFB
:10E6A00082070ED08207920F04239B1A0022154680
:10E6B00004E04E683554401CC0B2521C9A42F8D354
:10E6C00008720120009048680290087A8008019042
:10E6D000684600F06AFA00280DD00221FFF748FCD6
:10E6E000024602212046FEF7ADFA002803D00022A0
:10E6F0001146FEF72DFEFEBD10B5044600F0E3FC0A
:10E700000002E178000A0906084310BDEC2500204C
:10E71000882000208CF103005DE40300A7DF0300E4
:10E72000446675546172670033E1030077E40300C7
:10E73000CD0C0000D9E00300FFFF00000230000014
:10E740004B48002101704C484A4A02608160C16018
:10E75000016108224161426081610846704710B53D
:10E7600000291DD000220A60434A5368002B1BD0A9
:10E77000202817D85B1E5360D0682423401CD0602B
:10E78000106914684343E3180B60012383409169C7
:10E79000401C19434007400F91611061002010BDDB
:10E7A0000E2010BD0C2010BD042010BDF0B5324A63
:10E7B0000646916800292AD057691020791A49071E
:10E7C000490F14680B4624254D436519B54206D1FF
:10E7D000012495698C4065400020956104E0491C46
:10E7E0004907490F8F42EED1491C4E07760F9569B4
:10E7F00001210C469C4025420AD19368002B07D08A
:10E800005B1E936053685B1C53603346F1E7042042
:10E81000F0BD194A2423117C1268491E4907490F8B
:10E820005943203150500020704770B500281AD04D
:10E83000002918D0104AD368002B16D05B1ED36075
:10E84000936824265B1C9360536915681C467343C8
:10E85000EE1820330660E858641C08606007400F1B
:10E860005061002070BD0E2070BD042070BD0000FE
:10E870008D200020282600204827002070B5F74C66
:10E880001E4660781546012902D0032916D108E0FA
:10E89000052813D16369002B10D032462946042085
:10E8A0000BE002280AD1EE484068804703206070E0
:10E8B0006369002B02D0324629469847280003D0CE
:10E8C00000221146FEF744FD70BD00B5E34987B054
:10E8D000012008700520694608710598009001A87C
:10E8E0000FC8FFF7A0F907B000BD10B5DB480078EE
:10E8F000002801D0082010BDDA4C2068FEF7B2FFD6
:10E90000002803D000221146FEF722FD0F2100222D
:10E9100089042068FEF76DFF041E03D00022114613
:10E92000FEF716FD204610BDCC4910B5CB48183176
:10E93000016102214170C1681830FEF7E6FC002831
:10E9400003D000221146FEF703FD10BD00B5C549F6
:10E9500087B01422091D01A800F084FB05980090DF
:10E9600001A80FC8FFF75FF9BDE700B587B0012127
:10E9700068460171B94881886846C1800320000358
:10E9800080680590B64850384168029181680391CB
:10E99000C0680490059800900A46049B029901986B
:10E9A000FFF741F900209EE710B586B0142101A8B9
:10E9B00000F071FB002468460471A848818868460D
:10E9C000C180A7485038C06804900598009001A8FD
:10E9D0000FC8FFF728F9204606B010BD00B587B074
:10E9E0000321684601719D4881886846C1809C4822
:10E9F00050384168029181680391C068049005987D
:10EA000000900A46049B02990198FFF70CF9002038
:10EA100069E7FEB5934E6B463046183007C807C30A
:10EA20008E4C0025A5702146A58018316846FEF75A
:10EA300042FC002801D06570FEBD03208749000319
:10EA4000806818314860884A00218648FEF798FEA1
:10EA5000002803D000221146FEF77AFC0F21002285
:10EA600089043068FEF7C5FE002803D00022114655
:10EA7000FEF76EFC0120A56060700020FEBD7749A6
:10EA80004861704770B5426875481468536891686A
:10EA90005038D26804604360C260816000784407E7
:10EAA00001D5840705D19C0703D18C0701D19407B8
:10EAB00001D0062070BD5B189A18684D0F239B0289
:10EAC000EA60994207D8032109038968EF239B0272
:10EAD000591A914201D20C2070BD614C63492160EA
:10EAE00063496160C10701D0624804E0800701D535
:10EAF000614800E06148A0606878012802D00826DB
:10EB0000304670BDFFF7F1FE0600FAD12168E868D3
:10EB10008847F5E770B5050004D0287A800703D050
:10EB2000102070BD0E2070BD4C4C6078032803D0BF
:10EB3000042801D0052801D0082070BD6868E1686C
:10EB40008600A0688019884204D90020C043A060D4
:10EB50000C2070BDFFF7C9FE0028FAD1A968324623
:10EB6000A3682069FEF7B8FB0028F2D1A1688919D3
:10EB7000A160E2689142ECD0092070BD10B5374C1D
:10EB80000820A168002900D010BD61780429FBD1BC
:10EB90003348A1784038FFF799F9002802D00021C6
:10EBA000A17010BD0521617010BDF8B52B4C074652
:10EBB0006078032804D0042804D008252846F8BD2E
:10EBC00004206070A068002801D00820F8BDFFF77D
:10EBD0008CFE0500FAD178688600A078811940295A
:10EBE00001D90920F8BD1E4AB968403A10183246CA
:10EBF00000F038FAA0788019A070DFE710B5174C44
:10EC00006078052813D1E168A06888420FD10620FA
:10EC10006070FFF76AFE002808D12069E16840684B
:10EC2000FFF78FF9002801D10721617010BD08207E
:10EC300010BD10B509484078072801D0082010BD44
:10EC400008480068FEF70EFE002803D00022114697
:10EC5000FEF77EFB02488068804710BD94200020AC
:10EC6000D4270020A0F10300CBE8030029E903002A
:10EC70004DE903006BE90300DDE90300A9E90300A6
:10EC800000B587B00620694608710598009001A874
:10EC90000FC8FEF7C8FF26E6F8B51C4617460D4616
:10ECA000064600F0BBF8002817D00120000385427B
:10ECB00007D92346291B301B1A46FFF7EDFF002812
:10ECC0000BD13A462946304600F0B3F8002804D16B
:10ECD0003A462946304600F0A1F8F8BDF0B589B0B3
:10ECE0006846FFF79DF8039800282AD00121090300
:10ECF000069A4018904226D9501A45081046039AA1
:10ED00000C46871802466800161800190790032061
:10ED100000038068039988420DD2611908460422D5
:10ED200000F087F800280CD121460422084600F0A4
:10ED300080F8002805D1BA1B2B4630460799FFF70B
:10ED4000ABFF09B0F0BD039A069800F072F8F8E73F
:10ED500000B58BB004A8FFF763F8089800280DD021
:10ED6000079800280CD007990A98401801900021B4
:10ED70000898009180080290684618DF0BB000BD2B
:10ED8000032000038068F1E700B58BB004A8FFF70B
:10ED900047F808980028F1D0079800280ED0079966
:10EDA0000A984018032100910F21029089030898C6
:10EDB000019180080390684618DFDFE70320000315
:10EDC0008068EFE730B58FB06846FFF729F8039801
:10EDD000002814D001210903069A4018904214D942
:10EDE000501A43081046039A5C00821800196118F3
:10EDF00003242403A468039DAC4202D20E200FB06A
:10EE000030BD121AFFF748FFF9E703200BAB07C329
:10EE1000039880080E900BA818DFF0E71FB50323B6
:10EE200001909008039000930291684618DF04B0A7
:10EE300010BD1FB50123019090080390009302912B
:10EE4000684618DFF3E7000010B508461146FDF7E5
:10EE5000D7F910BDF8B5384C2078002837D0206994
:10EE6000002807D00026E068002805D00025002EE5
:10EE700004D013E00126F6E70125F8E7684651DFE4
:10EE8000052806D0002806D000221146FEF760FAB9
:10EE900004E0012602E0216900988847002D12D184
:10EEA000608869460880A06861DF052806D00028D0
:10EEB00006D000221146FEF74BFA04E0012502E0DD
:10EEC000E168A0688847002ED8D0002DCFD0F8BDCB
:10EED00070B5002901D08C0701D0072070BD164CF9
:10EEE0000125A16062801549636010DF0028F5D11B
:10EEF000257016202EDF70BD002803D00E49C86093
:10EF0000002070470E207047002803D00A4908618E
:10EF1000002070470E20704710B507484068002851
:10EF200007D08047002803D000221146FEF710FAD0
:10EF300010BDFFF78FFF10BDB420002049EE030085
:10EF400010B5002904D0002211461046FEF700FA41
:10EF5000FFF780FF10BD10B50021024A0846FEF7FA
:10EF600019FA10BD41EF03000321094802680A4362
:10EF70000260084802680A43026007488047074861
:10EF80000047FEE7FEE7FEE7FEE7FEE7FEE70000DC
:10EF90002405004054050040A1EF0300C1C0030058
:10EFA00010B500F01DF8002805D01F491D48486025
:10EFB000C8131E4988611E48018CC9B201290ED1AF
:10EFC000818C09070BD1018D0906090F042906D18F
:10EFD000808D0006000F02D116490120886010BD07
:10EFE0001348018CC9B2012917D1818C090714D1AA
:10EFF000018D09060A0F03D1828D1206120F0ED061
:10F00000090F012903D1828D1206120F07D003299F
:10F0100003D1808D0006000F01D000207047012031
:10F0200070470000DFFF07C000050040006C004093
:10F03000C00F00F00006004030B50B46014600202E
:10F040002022012409E00D46D5409D4205D31D46EE
:10F050009540491B2546954040191546521E002DE6
:10F06000F1DC30BD03460B439B0703D009E008C920
:10F07000121F08C0042AFAD203E00B780370401C68
:10F08000491C521EF9D27047D2B201E00270401CF6
:10F09000491EFBD270470022F6E710B513460A4618
:10F0A00004461946FFF7F0FF204610BD30B5044670
:10F0B0000020034600E05B1C934203D2E05CCD5C81
:10F0C000401BF8D030BD0321001D401E0378120202
:10F0D0001A43491EF9D5104670470000064C012519
:10F0E000064E05E0E36807CC2B430C3C98471034F0
:10F0F000B442F7D3FCF7E8FFC4F10300E4F10300E6
:10F1000030B47446641E2578641CAB4200D21D46A0
:10F11000635D5B00E31830BC184702E008C8121FAB
:10F1200008C1002AFAD170477047002001E001C1F0
:10F13000121F002AFBD17047CC20002002000000E3
:10F140000000000000000000000000004C2400202F
:10F1500023D1BCEA5F782315DEEF12120000000015
:10F1600055DB03000000000000000000020000006A
:10F17000000000000000000000000000000000008F
:10F180000300000000000000000000000500000077
:10F19000000000000000000000000000000000006F
:10F1A00064270020040000000000000000000000B0
:10F1B00000000000000000007DE8030000000000E7
:10F1C00000000000E4F1030000200020CC0000005B
:10F1D0001AF10300B0F20300CC200020140F00004D
:10F1E0002AF1030000000000000000000000000001
:10F1F000000000000000000000000000000000000F
:10F2000000000000000000000000000000000000FE
:10F2100000000000000000000000000000000000EE
:10F2200000000000000000000000000000000000DE
:10F2300000000000000000000000000000000000CE
:10F2400000000000000000000000000000000000BE
:10F25000000000000000FFFF00000000320000007E
:10F26000000000000000000000000000000000009E
:10F27000000000000000000000000000000000008E
:10F28000000000000000000000000000000000007E
:10F29000000000000000000000000000000000006E
:10F2A0000000000000000000000000000024F40046
:020000040003F7
:10FC000001000000000000000000000000000000F3
:10FC100000000000000000000000000000000000E4
:10FC200000000000000000000000000000000000D4
:10FC300000000000000000000000000000000000C4
:10FC400000000000000000000000000000000000B4
:020000041000EA
:0410140000C0030015
:040000050003C0C173
:00000001FF
